:10000000021B3E022003FFFFFFFFFF02200BFFFF4A
:10001000FFFFFF022013FFFFFFFFFF02201BFFFF78
:10002000FFFFFF022023FFFFFFFFFF02202BFFFF48
:10003000FFFFFF022033FFFFFFFFFF02203BFFFF18
:10004000FFFFFF022043FFFFFFFFFF02204BFFFFE8
:10005000FFFFFF022053FFFFFFFFFF02205BFFFFB8
:10006000FFFFFF022063FFFFFFFFFF02206BFFFF88
:10007000FFFFFF022073FFFFFFFFFF02207BFFFF58
:10008000FFFFFF022083FFFFFFFFFF02208B902076
:1000900000000100000000C80300FFFFFFFFFFFF9A
:1000A000FFFFFFFFFFFF0403090424035400650062
:1000B000780061007300200049006E007300740036
:1000C000720075006D0065006E00740073002403FB
:1000D0005400490020004300430032003500330043
:1000E000310020005500530042002000430044002E
:1000F000430000035F005F00300058000000000074
:1001000000000000000000000000000000000000EF
:100110000000000000000000000000003031323319
:100120003435363738394142434445466218B718AA
:10013000B718B718B718BF1874F71217FC12076072
:100140006003020216A3E0F8A3E06003020216A314
:10015000E064027002A3E060030202169005B4E0BE
:100160002480600914604F14605C020216E860038A
:100170000202169005AEE0600478018002780090DB
:1001800005BCE8F0A3E4F09005ADE0600A9005BC82
:10019000E04402F0A3E4F09005A2E064046014904F
:1001A00005AF74BCF0A37405F0A3E4F0A3740212CD
:1001B00007C2F002084290059BE064047058900565
:1001C000BCE4F0A380D0E8547FF50890059BE06480
:1001D000047043E508C39406503C749B2508F582DF
:1001E00074053400F583E854806018A3A3A3A3A387
:1001F000A3A3E0640370047801800278009005BC3A
:10020000E88090E582240CF582E5833400F583E0F4
:10021000640370E780E19005A27404809574F7127E
:1002200017FCE9FE9005BA1207636003020303900E
:10023000059BE06404600B9005B81207636003023D
:1002400003039005B4E0541F60091460301460206B
:100250000203039005B6E064017022EE9005ADF054
:1002600060047905800279067A001217FA02030900
:100270009005B8E0547FFA9005B6E0600579000279
:10028000030BEAC39406507BEA90620EF08A08746E
:100290009B2508F874053400F99005B8E054806097
:1002A0002CEE6004741080027440906211F0EE60D5
:1002B0000474038001E488828983A3A3A3A3A3A376
:1002C000A3F0EE6004790880317907802DEE600498
:1002D000742080027480906214F0EE6004740380D5
:1002E00001E4C0E0E8240CF582E93400F583D0E0B5
:1002F000F0EE6004790A800279091217FA90620E12
:10030000E480059005A27404F079010208427900A6
:1003100012021DE970031217E922790112021DE988
:1003200070031217F822C082C0839005B8120763C9
:100330007015A3120763700F9005B6120504548060
:10034000FAE9FBEA4B60079005A27404801AE89072
:100350006200F090059B6009E06402700C740380F9
:1003600007E0640370037402F0D083D0822274F338
:100370001217FC9005B6E0FAA3E0146008146010B0
:1003800014603B80591213E51204E1A37B80804383
:1003900079001214071204E17B80E92402F9EA349F
:1003A00000FA121A8FFC1919E0FAA3E92403F9EAFA
:1003B0003400FA121A8FF9ECA3F0A3E9801CEAF9D1
:1003C0001214759005AFEAF0A3EBF0A3E41204F069
:1003D000A37B00121A8FA3F0A3E4F002049B900504
:1003E000AFE4F0A3F0A3F0F50B900660E0FAA3E011
:1003F000FB02047675090074037808121B2BEA25AA
:1004000008F8EB3509F99005B61204FAE493C0E058
:10041000EFFCD0E06C705DA3E4936E70579005B86C
:100420001204FAA3A3E493C0E0EFFCD0E06C7044A4
:1004300088828983A3A3A3E4936E7038888289831A
:10044000A3A3A3A3E493F508740193F5099005AF62
:10045000E508F0A3E509F0A37480F088828983A3FE
:10046000A3A3A3A3A3E493F8740193F99005B2E8BE
:10047000F0A3E9F0050B850B08900662120504C392
:100480009AF50CE99BF50D7403780C121B4DC3E52E
:1004900008950CE4950D50030203F49005AFE0FCC1
:1004A000A3E0FDA3E0FEEC4D4E9005A270047404A1
:1004B0008029E0640460259005BAE0FAA3E0FB908F
:1004C00005B2E0F8A3E0F9C3EA98EB99500890056B
:1004D000B2EAF0A3EBF09005A27401F07F060219D6
:1004E000AD9005AFEAF0A3EBF0A374801204F02204
:1004F000F09005AFE0F9A3E0FA22E0FEA3E0FF8868
:1005000082898322E0F8A3E0F9E82274EE1217FC56
:10051000EA2404F8EB3400F9880889098882F58315
:10052000E4936025900664120504FEE98007EE243A
:1005300004FEEF3400FF8E828F83E493F8740193FE
:10054000F9EA687002EB6970E5750C008040906212
:10055000147490F074101206617003750D408E8251
:100560008F83A3A3A3E49355106006E50DD2E0F5B5
:100570000DE50D906215F0EA906213F0EC240CF595
:1005800082ED3400F583E4F090620EF0050C8508EE
:1005900082850983E493F8E50CC398400302065C66
:1005A0007A0079051213788A0E8B0FEA450F60DC0A
:1005B000EA2402F8EB3400F9880A890B8882F58373
:1005C000E493540FF51290620EF0750D008A828B41
:1005D00083A3A3A3A3E4932407F510A3E493340017
:1005E000F51174037810121B4DAA10851210749B1C
:1005F0002510F874053400F9E8FCE9FD7510017563
:100600001100E5127810121B2BE50E2403F8EB34D1
:1006100000F9850A82850B83E493A2E74003020573
:100620004E9062117448F074081206617003750DE3
:10063000408E828F83A3A3E49355106006E50DD20C
:10064000E0F50DE50D906212F0EA906210F08C82F8
:100650008D83A3A3A3A3A3A3A30205867F0B0219E3
:10066000ADF088828983E4935403640122C082C080
:10067000831207607010A3120763700AA3E064017D
:100680007002A3E060079005A27404800C9005AF8F
:10069000749CF0A374051207B8F002036974F41295
:1006A00017FC90059BE0640260149005B812076384
:1006B000700CA312076370069005B7E060099005FF
:1006C000A27404F002075B7A0079011217FA900510
:1006D000B6E060727A00F91214078A088B09EA45BD
:1006E00009605B90059B7404F09005B6E090059C52
:1006F000F0750C00850882850983A3A3A3A3E49366
:10070000F8E50CC398504D850C0A749D250AF874C1
:10071000053400F9E8FEE9FF8E828F83E4F07A0069
:1007200079041213788A828B83A3A3A3E493F88EAF
:10073000828F83E06870E712050B050C80B6900588
:10074000A27404F0800E90059CF090059B7403F059
:10075000F912104C7A0079021217FA7F050219ADCE
:100760009005B6E0F8A3E0F9E8492274F61217FC08
:1007700090059BE0640470199005B4E064817011E9
:10078000120760700C9005BAE064017002A3E0608B
:10079000079005A27404801A9005B8E0249DF5081E
:1007A000A3E03405F5099005AFE508F0A3E50912CB
:1007B00007B8F07F030219ADF0A3E4F0A304120719
:1007C000C222F0A3E4F09005A2042274F71217FCF1
:1007D00090059BE0640470649005B4E06401705C73
:1007E0009005BA12076370549005B6E0FB9005B807
:1007F000E0FA90059CE0F912143F8A088B09AE08D4
:10080000AF09EE4F60369005B8E0FA79031217FA97
:100810009005B6E0C0E09005B8E0249DF8A3E03470
:1008200005F988828983D0E0F0EEFAEFFB12050B20
:100830009005B8E0FA79041217FA80069005A274C0
:1008400004F07F020219AD74F81217FC74FF121A3B
:10085000C27E00801C120ACAE9FE900383E4F09075
:100860000385F0851882851983E0F8900382E0689B
:10087000F07901851882851983AA82AB831211CB86
:10088000E97003020959E0C0E0900385E0F89003A5
:1008900083E0FAE82AF8E43400F9740028F5827459
:1008A0000339F583D0E0F0900385E06011146020F7
:1008B00014603E14604E14606414607A80A585183C
:1008C00082851983E064FE709A900385740180929A
:1008D000900382E4F0851882851983E0900384F008
:1008E000C394809003854004E40208627402020805
:1008F00062851882851983E0900380F090038574E7
:1009000003020862851882851983E0900381F090C4
:100910000384E060199003857404020862900383E5
:10092000E004F0F8900384E0686003020863900339
:10093000857405020862900382E0F88518828519A3
:1009400083E068600302085A900380E0644D60030E
:10095000020855120B90020858EEF97401121A752C
:100960007F010219AD74ED1217FC74FB121AC275E7
:1009700008047509007808121AF27402121B69AC97
:1009800082AD837A907B0079041215987402121A52
:1009900075851882E0F47003A3E0F4600F85188277
:1009A000851983E0F8A3E0F9E8497003020ABE74F0
:1009B00002121B69E0687003A3E0697003020A98E1
:1009C00075080075100075112075120075130080F0
:1009D0000A9005BE7810121B03604C750A01750B56
:1009E00000780A121AF27406121B69AC82AD838574
:1009F000100A85110BAA0AE50B5407FB8A0C851116
:100A00000D85120E85130F740B780C121AA9A90C00
:100A10001215987402121A75E0F9AA08AB09120DA2
:100A2000828A088B09800C7510937511207512004D
:100A30007513009005C27810121B189005C6781027
:100A4000121A3B508CE4F9120D82E4F9120D8274F3
:100A500002121B69EAF0A3EBF07508017509007832
:100A600008121AF27402121B69AC82AD837A247BDD
:100A70000812161D7402121A757508047808121AE5
:100A8000F27402121B69AC82AD837A907B00790408
:100A90001215987402121A75120D07121B69E0687C
:100AA0007003A3E0697017851882851983E0F470DC
:100AB00003A3E0F46008E84960047901800279004A
:100AC0007405121A757F0C0219AD74F51217FC7EAD
:100AD00000900380E06427701D900381E0600302B2
:100AE0000B89900304E4F09003107480F07B0E7A7D
:100AF000007967120D15900380E064216003020BFA
:100B000089900381E0702F7B007A807961120D1546
:100B10008E088E09750A048E0B009005CA7808129B
:100B20001B18E5084509450A450B70EDC2AF75C9AC
:100B3000AB75C95B80FE6401702C120965E99003F6
:100B40000460047475800274B5F0A37432F0A37469
:100B500001F0A3E4F07B047A017961120D15900392
:100B600080E064217023900381E0644B701B1209C4
:100B700065E990030460067475F00E800374B5F0A7
:100B80007B017A4B7961120D15EEF97F040219ADE4
:100B900074F31217FC74FC121AC2900304E0FAA357
:100BA000E0F8E4C8F9EA2400FEE93408FF750A0118
:100BB000880988088E0C8F0D7409780C121B4DA9BA
:100BC0000CEEF50CEF5401F50D900381E01460126A
:100BD000146038146078146003020CE77508020290
:100BE0000CE7750802EA450D7003121683750C10A8
:100BF000750D00780C121AF27C067D03EEFAEFFBFD
:100C000012161D7402121A75020CE7750802E9C368
:100C100094794006750901020CE7750A40750B00CE
:100C2000780A121AF27C077D037402780C121B2BCF
:100C3000AA0CAB0D1215987402121A75900305E0F8
:100C4000A3F0900304E0A3F0750A43020CE7750CCF
:100C500004750D00780C121AF27402121B69AC8232
:100C6000AD837A907B0079041215987402121A757C
:100C70007402121B69E0F8A3E0F9851882851983D4
:100C8000E0687003A3E0696047120D07121B69E872
:100C9000F0A3E9F0750C01780C121AF27402121B21
:100CA00069AC82AD837A247B0812161D7402121A75
:100CB00075750C04780C121AF27402121B69AC825E
:100CC000AD837A907B0079041215987402121A751C
:100CD000120D07121B69E0687003A3E069700575C7
:100CE00008018003750907E509900304F0AB0A9039
:100CF0000381E04480FA794D120D15A9087404129D
:100D00001A757F060219AD851882851983E0F8A34C
:100D1000E0F974022274F81217FCE9FEEAFF8B086E
:100D200074042508FD90030074FEF0EE900302F0B9
:100D3000EFA3F0EB900301F0EDF83395E0F97400C8
:100D400028F8740339F988828983E4F07C01801AD9
:100D5000ECFA3395E0FB74002AF58274033BF583CB
:100D6000E0FA88828983E06AF00CECC39DA2D26528
:100D7000D03340DC74012CF97A007B0312120B0291
:100D80000960C008C0097C088A088B09740F7808BC
:100D9000121B4DEAC333FAEB33FBE9A2E7500474AC
:100DA000014AFAE508A2E0500874216AFA74106B4F
:100DB000FBE9C333F91CEC70CFD009D00822C08204
:100DC000C0837A0079011214078A828B83A3A3A3BC
:100DD000A3A3A3A3E493A2E69005AE5004740180FC
:100DE00001E4F09005ADE4F090620F7403F0E0A22E
:100DF000E750FBD083D08222C082C08390059B74D1
:100E000002F0A3E4F09005A2F0790312104C7521D2
:100E10000075220080DD74F61217FC90620EE0FE71
:100E2000E4F0906211E0FFA2E4501D7480F09005A0
:100E3000A27407F0E521452260098521828522837D
:100E4000121B7B9005A2E4F0EFA2E2500B9062111E
:100E5000E4F09005A2F080629005A2E0F8740268C8
:100E60007041906216E0FF9005AF1219EDEFF97A2C
:100E7000207B621210847403121A758F089005B2D9
:100E800012102112102CE0F8A3E0F9E84960047474
:100E90004080027448906211F0E849600302101724
:100EA000020FF37406687009852182852283121B64
:100EB0007B9005A2E06003020FA3EFA2E0400302D3
:100EC00010177508B4750905750A007808121AEE2E
:100ED00079087A207B621210847403121A757521C6
:100EE000007522009005B4E054E0601D24E070031A
:100EF000020F7F24E0607224C0604824E070030287
:100F00000F8A24E0606E020F95A3E014602624FE91
:100F1000601D24FE600A24FC601F24FE6020807592
:100F20001203269005A2E06404707274608070124F
:100F3000031A80EF12030E80EA12069D80E5120765
:100F4000CB80E0A3E0600E24FA600F24FE60102442
:100F5000FE6011804012013880C912036E80C412F5
:100F6000066D80BF12076B80BA7521E575221712D6
:100F700017E580AF7521E77522171217E780A47572
:100F8000218075221712178080997521B07522175C
:100F90001217B0808E9005A27404F0808E74409079
:100FA0006211F09005A2E0F8740168705C7F029015
:100FB00005B2E0F8A3E0F9C3E89420E994005007F3
:100FC000E8F50A7F0A8003750A209005AF1219ED33
:100FD000A90A7A207B621210A97403121A75850A75
:100FE0000812102C121021EF906211F0E50AC39440
:100FF000205024E521452260098521828522831223
:101000001B7B9005A2E4F0800E74056870098521B1
:1010100082852283121B7BEE90620EF07F03021901
:10102000ADC3E09508F0A3E09400F0229005AFE096
:10103000F9A3E0FAA3E0FBE92508F9EA3400FA9005
:1010400005AFE9F0A3EAF0A3EBF0A32274F71217BF
:10105000FC7800880874A32508F5827405121078BE
:1010600040F17800880874A82508F58274051210EC
:101070007840F17F020219AD3400F583E9F008E809
:10108000C394052274F61217FCEAFCEBFDE9F87430
:101090000A121B691210D9600D8C828D83E0121A1E
:1010A000D81210CE70F302101C74F61217FCEAFC72
:1010B000EBFDE9F8740A121B691210D9600D121ABF
:1010C0008F8C828D83F01210CE70F302101CE924F5
:1010D0000109EA3400FA18E822E0F508A3E0F5096E
:1010E000A3E0A908AA09FBE822C082C083800312FA
:1010F00016DFA2E840F9A823E8540460097823E643
:1011000054FBF6120DF8A823E8541060097823E682
:1011100054EFF6120E16A823E8A2E05005782354E7
:10112000FCF690620EE0FA7404F0906214E0A2E023
:101130005042E5A8F8C2AF906216E0F9A3E0E9FBDF
:10114000E8A2E792AF801F906228E0C0E090038F92
:10115000E0F8749028F58274033400F583D0E0F051
:1011600090038FE004F0EBFC74FF2C1B0470D8900C
:101170006214E4F0EA90620EF0E0FD7404F0906214
:1011800011E0A2E0403B900491E0F8900490E06808
:10119000602F7A40900490E0F8749228F5827404ED
:1011A0003400F583E0906228F0900490E004F008A9
:1011B000900491E06860041AEA70D9906211740199
:1011C000F0ED90620EF0D083D0822274F81217FCFA
:1011D000E9FE7900801F90038EE0FC74902CF5826C
:1011E00074033400F583E08A828B83F090038EE0F1
:1011F0000412123E0990038EE0F890038FE06860BD
:1012000005E9C39E40D07F010219ADC082C0838032
:10121000228A828B83E0C0E0900491E0FC74922CDF
:10122000F58274043400F583D0E012123E900491EC
:10123000E004F0E9F874FF28190470D58088F08A7A
:10124000828B83A3AA82AB8322794A1212E053BE17
:10125000FBE59DA2E650FA0078F8790100E824FF4A
:1012600018E934FFF9E84970F375C6807480659E0B
:1012700070FA43BE049062707408F01212D553F4F1
:10128000FEC29043FE017403F5D575D48690059295
:10129000E4F0A374C2F0A37401F0A3E4F0A3F0A3FC
:1012A000F0A37408F0120DBE7AFF7BFF12169A535A
:1012B000F4FED29043FE011212D5794E1212E012C2
:1012C00012F6120965E96003121356C2AF75C9AB75
:1012D00075C95B80FED28043FD01C29143FE0222AC
:1012E000781075B60FE5B4A2E750FAE5BBC3994094
:1012F000F118E870ED2274F11217FC750C00750DF1
:1013000000750E00750F00794E1212E01210E9857B
:101310000D099005C2780C121B18E5095440600AAB
:10132000A2805004C2808002D280120847E9640182
:1013300070DA750800750900750A04750B000090D5
:1013400005CA7808121B18E5084509450A450B70BF
:10135000ED7F080219ADC280D291A29250FCA293F7
:1013600050F8D280C291022000C2AF75C9AB75C9D6
:101370005B80FED083D08222C082C083E9FCEAFD7C
:101380007A007B0080031213C3900599E0F8A3E074
:10139000F990065EE0687003A3E069602490059A06
:1013A000E0F5838882A3E493F8EC68700D900599CA
:1013B000E0FAA3E0FB1213C38007ED6870C8ED608C
:1013C000C580B0900599E0F8A3E0F5838882E493A6
:1013D000F8900599E028F8A3E03400F9900599E821
:1013E000F0A3E9F022C082C0831213F67A007901DB
:1013F00012137802137390065CE0F8A3E0F99005ED
:1014000099E8F0A3E9F02274F71217FCE9FEEAFF6D
:101410001213F67A007902121378EA4B601CEE6020
:10142000108A828B83A3A3A3A3A3E4936E70E480AA
:1014300009EFF874FF281F0470D97F020219AD74F8
:10144000F51217FCEAFF8B087A001214077A02796A
:1014500004121378EA4B60188A828B83A3A3E49367
:101460006F70EA8A828B83A3A3A3E493650870DD7F
:101470007F040219AD74F71217FC74F0121AC2E956
:101480007A007B00600C1460101460141460180261
:1014900015807AD67B050215807ADA7B05021580E5
:1014A0007AFE7B05021580900622E0600302157C1F
:1014B0007408121B69AC82AD837583057582CE7486
:1014C00008121A1A750808F5097808121AF2740237
:1014D000121B69AC82AD837AE87B07797F1215987D
:1014E0007402121A757808121AF2740A121B69AC87
:1014F00082AD837402121B69AA82AB831219157420
:1015000002121A758B09EA4509701D7509007808E1
:10151000121AF27C0C7D787402121B69AA82AB83CA
:101520001219677402121A757C287D008D088518BF
:1015300082851983E5822508F582E5833400F583E9
:10154000E0FF8C0874222508F874063400F9EF12C5
:10155000158888828983F0EFC4121588C0E0E824DA
:10156000FEF582E934FFF583D0E0F00D74FC2CFC2D
:10157000EDC3940840B6900622742AF07A227B06C6
:101580007410121A7502143A540FFA744C2AF58228
:1015900074063400F583E02274F51217FC89087490
:1015A0000F5508F50A750B00740B780A121B2BEA0D
:1015B0002400F8EB3480F9E82400E9350BF9E5C79D
:1015C000F509A2AFE433F50AC2AFE508C4540FFA37
:1015D000E5C754F84AF5C7740B121B69E0FAA3E09B
:1015E000FB801C88828983E08C828D83F0888289CD
:1015F00083A3A882A9838C828D83A3AC82AD83EA66
:10160000FEEBFFEE24FF1AEF34FFFBEE4F70D485A4
:1016100009C7E50AA2E092AF7F040219AD74F71280
:1016200017FCED900386F0ECA3F0A37462F0A374B2
:1016300073F0A3E0541FF07409121B69E0F508A3CE
:10164000E0F509E508333354FC90038BF074067819
:1016500008121B4DE50890038AF090038C7412F079
:10166000A37442F075D1FE75D601EA906271F0EB79
:10167000A3F0906270E0D2E1F0E0A2E740FB7F02CD
:101680000219ADC082C083E9C333906272F09062E8
:1016900070E0D2E0F0D083D0822274F71217FC758C
:1016A00023007524007525008A268B27EA90620B9B
:1016B000F08A088B0974047808121B4DE5089062C3
:1016C00007F08A088B0974097808121B4DE5085445
:1016D0003E906209F0758B00C2E87F020219AD747A
:1016E000F71217FCE59DA2E650FA906206E0FAA216
:1016F000E25035A826E890620BF0F50885270974BA
:10170000047808121B4DE508906207F085260885CD
:10171000270974097808121B4DE508543E906209A8
:10172000F0906201E0D2E0F07823EA46F69062029F
:10173000E0F50875090074047808121B2B7823E57E
:101740000846F608E50946F6906204E0F5087509D2
:101750000074097808121B2B7824E50946F6EAA2E2
:10176000E0500375250174065A6003752500E58B6A
:10177000A2E55006758BDF7525001217FB0216D502
:10178000C082C0839005B5E0F874226870089005A7
:10179000A2E0701A80117420689005A2700DE070AC
:1017A0000D1217D79005A2740280027404F08043D2
:1017B000C082C0839005B5E064219005A27013E05B
:1017C00070131217D7A37407F0A3E4F09005A204D6
:1017D00080027404F0801C9005AF7492F0A374052D
:1017E000F0A3E4F02280028000C082C0839005A2B2
:1017F0007404F0D083D0822280EF22222518C58283
:10180000C0E0E51934FFC583C0E0E518C395822424
:10181000F910AF088583198582188008858319859A
:101820008218D2AFCEF0A3E520F0A37808E608F046
:10183000A3DEFAEFF0A3E58124FBF8E608F0A3E6C7
:1018400008F0A30808E608F0A3E608F0A315811540
:1018500081D0E0FED0E0F815811581E8C0E0EEC04F
:10186000E02212010002020000205104A816090023
:10187000010203010902430002010080190904006A
:1018800000010202010005240010010424020205E7
:1018900024060001052401000107058203400040E1
:1018A00009040100020A000000070584024000004C
:1018B000070504024000007D180000A01800001277
:1018C0001B78B9000302190FE479217807B80002E8
:1018D0008004F709D8FCE490030078BF7903800204
:1018E000F0A3D8FCD9FA9005BEAA82AB8390008EF3
:1018F00078AB79018015E493A3AC82AD838A828BA7
:1019000083F0A3AA82AB838C828D83D8E9D9E712B6
:101910001249121B7374F51217FC740B121B69E049
:10192000F8A3E08015A3AA82AB838C828D83A3AC3D
:1019300082AD83E824FF18E934FFF9E849601F8C81
:10194000828D83E0F5088A828B83E0F50AE50865DD
:101950000A60D2E50AC39508FA95E0FB80047A0094
:101960007B007F040219AD74F71217FCEAF8EBF95B
:101970007409121B69E0FEA3E0FF80188C828D833E
:10198000E088828983F0A3A882A9838C828D83A3B7
:10199000AC82AD838E088F09E50824FF1EE509346B
:1019A000FFFFE508450970D47F020219AD85198350
:1019B000851882E0A3FEE0A3F5207808E0A3F608EE
:1019C000DFFAE0A3FFE0A3C0E0E0A3C0E0E0A3C033
:1019D000E0E0A3C0E010AF08858218858319800875
:1019E000858218858319D2AFD083D0822274038078
:1019F00000CCC0E0EDC0E0E518C39CCCAD195001AF
:101A00001D10AF068C188D1980068C188D19D2AF59
:101A1000121A1AD0E0FDD0E0FC22CAC0E0E0A3C553
:101A200082CCC582C583CDC583F0A3C582CCC582D7
:101A3000C583CDC583DAE6D0E0CA22C008C3E096EC
:101A4000F50808A3E096420808A3E096420808A318
:101A5000E09645087001D3D008222518F58210AF12
:101A600008F518400215198008F51840021519D21A
:101A7000AF85198322C0D0251810AF08F518500281
:101A800005198008F51850020519D2AFD0D022BB35
:101A90000102E722C082C08389828A83BB0003E0FF
:101AA0008002E493D083D082226016080808C6C35F
:101AB00013C618C613C618C613C618C613C6D5E073
:101AC000EA22251810AF08F518400215198008F50C
:101AD0001840021519D2AF22BB000EC082C0838A03
:101AE000838982F0D083D08222BB0101F722740364
:101AF000800474028000C0E0F404121A5AD0E0128C
:101B00001B5C22E066701008A3E066700A08A3E080
:101B100066700408A3E06622E026F608A3E036F625
:101B200008A3E036F608A3E036F622700422600D22
:101B300018C6C333C608C633C6D5E0F4182275D01C
:101B40000075813F7518007519030218BF600C08F5
:101B5000C6C313C618C613C6D5E0F422CAC0E0E651
:101B6000F0A308DAFAD0E0FA222518F582E4351954
:101B7000F5832200000080FB790122E473FFFFFF60
:101B8000FFFFFFFFFFFFFFFFFFFFFFFFFFFFFFFF65
:101B9000FFFFFFFFFFFFFFFFFFFFFFFFFFFFFFFF55
:101BA000FFFFFFFFFFFFFFFFFFFFFFFFFFFFFFFF45
:101BB000FFFFFFFFFFFFFFFFFFFFFFFFFFFFFFFF35
:10200000022BB902220FFFFFFFFFFFFFFFFFFFFFC1
:10201000FFFFFFFFFFFFFFFFFFFFFFFFFFFFFFFFD0
:10202000FFFFFFFFFFFFFFFFFFFFFF0228F1FFFFA2
:10203000FFFFFF022232FFFFFFFFFFFFFFFFFFFF57
:10204000FFFFFFFFFFFFFFFFFFFFFFFFFFFFFFFFA0
:10205000FFFFFF02214EFFFFFFFFFFFFFFFFFFFF1C
:10206000FFFFFFFFFFFFFFFFFFFFFFFFFFFFFFFF80
:10207000FFFFFFFFFFFFFFFFFFFFFF022775FFFFCF
:10208000FFFFFF0221ABFFFFFFFFFFFFFFFFFFFF8F
:102090001A0F1A0F0101FF01010503010F10FEFFC6
:1020A0001D361D361D361D36CD34C7341D36F64857
:1020B000000000005849000000000C0000000C0067
:1020C000010000393800000000F7377D390000F3C7
:1020D00038000000000000FFFF02004B0500000078
:1020E000E803BF0503E80364006400B801020300CD
:1020F0008010020502070401051E02051E020A0ADD
:1021000003B80B02803E010201FFFF0A1401E096B2
:10211000511800020206FFFF00035F005F0030005D
:102120005800000000000000000000000000000057
:10213000000000000000000000000000000000009F
:1021400000009725EC25EC25EC25EC25F425C0E0D6
:1021500074F2122538A2AFE433FED2AFE5A7FFE553
:10216000A1F5085F541060061241ED75A1EFE50876
:102170005F540860081241F375A1F78024E508A2B6
:10218000E092F0EFA2E082F05017906198E0F890B2
:1021900008C8E0C398A2D265D0335002E8F075A118
:1021A000FEEEA2E092AF7F010225F4C0E074F212CD
:1021B0002538A2AFE433FED2AF9061A4E0F8759B5E
:1021C00000E59158540860087591F712423B80234E
:1021D000E59158541060087591EF1242418014E562
:1021E00091A2E092F0E8A2E082F05007E0C2E0F0B5
:1021F0001243859061A3E0F8E5E9585404600E129B
:10220000435B75E9FB906193E0A2E640F28092C0E7
:10221000E074F2122538A2AFE433FED2AF9061A58C
:10222000E0F8E5BF585404600675BFFB12439D02F9
:1022300021A1C0E074F1122538E59DA2E650FA9084
:102240006206E0FAA2E25035A82CE890620BF0F5A5
:1022500008852D0974047808122BD8E508906207C8
:10226000F0852C08852D0974097808122BD8E5080B
:10227000543E906209F0906201E0D2E0F07829EAE1
:1022800046F6906202E0F5087509007404780812B9
:102290002B1C7829E50846F608E50946F690620405
:1022A000E0F50875090074097808122B1C782AE5F6
:1022B0000946F6EAA2E05003752B0174065A600342
:1022C000752B00E58BA2E55006758BDF752B001290
:1022D00044E7758B00C2E87F020225F4C3E498F856
:1022E000E499F912231D8026C3E49AFAE49BFBE9E2
:1022F00020E7E912231DE498F8E499F922C3E49851
:10230000F8E499F912231DE498F8E499F9C3E49AE2
:10231000FAE49BFB22EB20E7CFE920E7E0B90010CD
:10232000BB0008E88AF084F8AAF022E4FBC8FA228D
:10233000EB70227B10C833C8C933C9335007C39A26
:10234000C3DBF280069A50012ADBEAC833F4C8C91D
:1023500033F4C9FA2275F008E4C833C8C933C93365
:10236000C99AC99B5004C92AC93BD5F0ECFBC833B4
:10237000F4C8E4C9FA22080808EAC0E0EBC0E08625
:10238000F0E7A4FA180986F0E7A42AFA180986F0FB
:10239000E7A42AFA180986F0E7A42AFA1986F0E7D2
:1023A000A4FBE5F02AFA190886F0E7A42BFBE5F078
:1023B0003AFA190886F0E7A42BFBE5F03AFA181868
:1023C0000986F0E7A4C5F02BFBE43AFA1908E7C543
:1023D000F0C6A426F6E5F03BFBE43AFA1886F0E7EF
:1023E000A4F6E5F00826F6E43B08F6E43A08F6D051
:1023F000E0FBD0E0FA22E4CFC0E0E4CEC0E0E4CDE0
:10240000C0E0E4CCC0E075F020C3E633F608E63364
:10241000F608E633F608E633F6181818EC33FCED48
:1024200033FDEE33FEEF33FFC3EC9709ED9709EE72
:102430009709EF97191919400FFFEC97FC09ED97D1
:10244000FD09EE97FE191906D5F0BEECF709EDF778
:1024500009EEF709EFF7191919D0E0FCD0E0FDD02B
:10246000E0FED0E0FF222518C582C0E0E51934FF68
:10247000C583C0E0E518C3958224F810AF088583B2
:10248000198582188008858319858218D2AFCEF00D
:10249000A3E520F0A37808E608F0A3DEFAEFF0A3A6
:1024A000E58124FAF8E608F0A3E608F0A3E608F0D0
:1024B000A30808E608F0A3E608F0A315811581D06B
:1024C000E0FED0E0F8158115811581E8C0E0EEC08E
:1024D000E022122C1BB90003022522E47921780D99
:1024E000B800028004F709D8FCE490030178BE79B3
:1024F0000C8002F0A3D8FCD9FA900EBEAA82AB835E
:1025000090209478BB79018015E493A3AC82AD83CD
:102510008A828B83F0A3AA82AB838C828D83D8E9D5
:10252000D9E77582977583C7740512296F75826321
:10253000758347740012296FC0D02518C582C0E08A
:10254000E51934FFC583C0E0E518C3958224F31074
:10255000AF088583198582188008858319858218BC
:10256000D2AFC8F0A3E9F0A3EAF0A3EBF0A3790897
:10257000E709F0A3D8FAECF0A3EDF0A3EEF0A3EF97
:10258000F0A3D0E0F0A3D0E0F0A3D0E0F0A3E520EA
:10259000F0A3E5F0F0A32212010002020000205196
:1025A00004A8160900010203010902430002010008
:1025B0008019090400000102020100052400100135
:1025C0000424020205240600010524010001070578
:1025D000820340004009040100020A0000000705D0
:1025E000840240000007050402400000B2250000FC
:1025F000D5250000851983851882E0C0E0A3E0F9A5
:10260000A3E0FAA3E0FBA37808E0F608A3DFFAE072
:10261000FCA3E0FDA3E0FEA3E0FFA3E0C0E0A3E095
:10262000C0E0A3E0F5D0A3E0F520A3E0A3F5F0100F
:10263000AF088583198582188008858319858218DB
:10264000D2AFD082D083D0E0F8D0E03275F0108ED7
:10265000218F22858226858325851882851983E02E
:10266000CEA3E0CF852682852583EBC9EAC8EDCBD2
:10267000ECCAC3E833C8E933C9EA33CAEB33CBC386
:10268000EA9EF524EB9FF523B35004AB23AA24EC78
:1026900033CCED33CDD5F0DAAE21AF2222D083D0CA
:1026A00082ECC0E0EDC0E0E493A3FCE493A3FDED75
:1026B0004C600D1227B8EC24FFFCED34FFFD80EFD9
:1026C000E493A3FCE493A3FDED4C600D122859ECB8
:1026D00024FFFCED34FFFD80EFD0E0FDD0E0FCE412
:1026E00093A3C0E0E493C0E022D083D082E9C0E0AD
:1026F000E493A3C386F0C5F095F0F908E493A386AC
:10270000F0C5F095F0700BE493A3C3994005E9047C
:102710008002A3E475F002A42582F582E5F03583FA
:10272000F583D0E0F9E493A3C0E0E493C0E0228510
:102730001983851882E0A3FEE0A3F5207808E0A3C2
:10274000F608DFFAE0A3FFE0A3C0E0E0A3C0E0E00A
:10275000A3C0E0E0A3C0E0E0A3C0E010AF08858222
:10276000188583198008858218858319D2AFD08394
:10277000D082022975C0E074F2122538A2AFE4338A
:10278000FED2AFE58AA2E2500790068AE0D2E0F0DE
:10279000E58AA2E3500790068AE0D2E1F0758A004C
:1027A000C2EB7A017B00900686E0F9123ACDEEA2E8
:1027B000E092AF7F010225F4C0E0C3E49396087471
:1027C00001939618400FE4936670080874019366AD
:1027D0001870007019A3A3C3E4939608740193962C
:1027E00018A3A3400DD0E0D0E0D0E00226D9A3A3E7
:1027F000A3A3A3A3D0E0227404800874038004740C
:10280000028000CCC0E0EDC0E0E518C39CCCAD195F
:1028100050011D10AF068C188D1980068C188D196B
:10282000D2AF1228D0D0E0FDD0E0FC2274028000AC
:10283000CCC0E0EDC0E0E518C39CCCAD1950011D43
:1028400010AF068C188D1980068C188D19D2AF1216
:1028500028AED0E0FDD0E0FC22C0E0C0F088F0E47B
:10286000936670080874019366187000A8F0A3A31B
:10287000700BD0F0D0E0D0E0D0E00226D9A3A3D0F6
:10288000F0D0E022D083D082CCC0E0E493A36006F5
:102890001229311470FAE493A36006122A3E1470D0
:1028A000FAD0E0FCE493A3C0E0E493C0E022CAC005
:1028B000E0E493A3C582CCC582C583CDC583F0A3D4
:1028C000C582CCC582C583CDC583DAE5D0E0CA22F6
:1028D000CAC0E0E0A3C582CCC582C583CDC583F064
:1028E000A3C582CCC582C583CDC583DAE6D0E0CA54
:1028F00022C0E0C0D0E8C0E0E9C0E0E5A8D2AFC2A5
:10290000C7A2E7A2E792AFD0E0F9D0E0F8D0D0D0EC
:10291000E0327009080808226016181818C6C33378
:10292000C608C633C608C633C608C633C6D5E0EAED
:1029300022C0E0E493A3D39C5010E493A3C39C4033
:102940000AD0E0D0E0D0E00228A1A3A3A3D0E022E7
:10295000C008C3E096F50808A3E096420808A3E083
:1029600096420808A3E09645087001D3D00822C01B
:102970009FF59FE473D09F22D083D082C09FE493C1
:10298000C0E0740193C0E0740293F59F2274048048
:102990000A74038006740280027401C0E0F4041219
:1029A00029A8D0E0122BF6222518F58210AF08F5E1
:1029B00018400215198008F51840021519D2AF8584
:1029C000198322C0D0251810AF08F5185002051938
:1029D0008008F51850020519D2AFD0D022BB0102F1
:1029E000E722C082C08389828A83BB0003E0800221
:1029F000E493D083D082226016080808C6C313C6A9
:102A000018C613C618C613C618C613C6D5E0EA22E0
:102A1000C3E0C696F608A3E0C696F608A3E0C696FD
:102A2000F608A3E0C696F622251810AF08F5184060
:102A30000215198008F51840021519D2AF22C0E01E
:102A4000E493A36C7009D0E0D0E0D0E00228A1A309
:102A5000A3D0E022BB000EC082C0838A838982F0AB
:102A6000D083D08222BB0101F722E066701008A358
:102A7000E066700A08A3E066700408A3E06622E737
:102A80006670100809E766700A0809E766700408AE
:102A900009E76622C3E09608A3E09608A3E096083B
:102AA000A3E096A2D265D03322C3E096F008A3E05B
:102AB00096F008A3E096F008A3E096F022E026F650
:102AC00008A3E036F608A3E036F608A3E036F622BF
:102AD000E026F008A3E036F008A3E036F008A3E013
:102AE00036F022E657F60809E657F60809E657F6E3
:102AF0000809E657F622E056F608A3E056F608A3C2
:102B0000E056F608A3E056F622E647F60809E6473F
:102B1000F60809E647F60809E647F622700422603F
:102B20000D18C6C333C608C633C6D5E0F41822C094
:102B3000E0E8C0E0E58124FCF8E6A2E7D0E0F8D0C8
:102B4000E022E627F60809E637F60809E637F60830
:102B500009E637F622E056F008A3E056F008A3E0B5
:102B600056F008A3E056F022E4C396F608E496F681
:102B700008E496F608E496F622C6F4C608C6F4C63B
:102B800008C6F4C608C6F4C622600D08C6A2E7133C
:102B9000C618C613C6D5E0F322C3E7960809E79620
:102BA0000809E7960809E79622C3E09608A3E0968D
:102BB00008A3E09608A3E0962275D00075814075C1
:102BC0001801751903000224D2E0F608A3E0F60804
:102BD000A3E0F608A3E0F622600C08C6C313C618EB
:102BE000C613C6D5E0F422E6F008A3E6F008A3E693
:102BF000F008A3E6F022CAC0E0E6F0A308DAFAD0B3
:102C0000E0FA22E0FAA3E0FBA3E0FCA3E0FD22EA65
:102C1000F0A3EBF0A3ECF0A3EDF022E5C754F844E9
:102C200001F5C77901222518F582E43519F58322CB
:102C3000C2AF75D69F0200002212297896AA02120E
:102C40002978BFAA021229782FAB0212297888AB03
:102C50000212297801AC0212297856AE02122978A4
:102C600010B002122978BCB00212297803B2021205
:102C70002978A1B402122978A7B702122978B4B72B
:102C80000212297842B802122978F4B8021229787F
:102C90003CB9021229789CB902122978B8B90212FB
:102CA0002978ECB90212297821BA021229780ABBD4
:102CB00002122978BFBB0212297814BE02122978A9
:102CC00061BF0212297804C00212297891C0021251
:102CD0002978C7C00212297879C1021229784BC21B
:102CE0000212297806C402122978A5C40212297892
:102CF000D9C40212297854C5021229782EC60212AC
:102D00002978F5C6021229783AC70212297852C7E3
:102D100002122978E9C7021229785ACA02122978C0
:102D20006FCC021229788DCC02122978ABCC02121A
:102D3000297885CD02122978A3D002122978008043
:102D4000031229783580031229785B8003122978D1
:102D5000958003122978A78003122978F98003123D
:102D600029785A8103122978E4810312297888820C
:102D700003122978D082031229780A830312297852
:102D80002783031229784C83031229789E83031228
:102D90002978B78303122978DD8303122978FC830D
:102DA000031229783784031229787B840312297847
:102DB000A28403122978F38403122978A3850312CD
:102DC00029785B8603122978238703122978E38701
:102DD000031229782788031229784C88031229784E
:102DE0008F8803122978DC8803122978348A031229
:102DF0002978BA8A03122978D88A03122978028B93
:102E0000031229781C8B031229782B8B0312297843
:102E1000368B03122978F68B031229784F8C031214
:102E20002978118D03122978198D03122978918D33
:102E300003122978E08D03122978268E031229784F
:102E4000678E03122978F78F03122978AF90031247
:102E500029781B91031229784692031229786B92E4
:102E600003122978E19203122978739303122978C7
:102E7000CB93031229788B9403122978AA94031216
:102E80002978B99503122978D79503122978E995FD
:102E9000031229783C96031229784B96031229785D
:102EA000EF96031229784498031229785D9803124B
:102EB00029789999031229782A9A03122978389B3C
:102EC00003122978719B03122978BD9B031229787C
:102ED000D99C03122978229F031229782D9F03126F
:102EE0002978389F03122978439F031229784D9F30
:102EF00003122978589F03122978729F03122978A8
:102F00007C9F03122978869F03122978919F0312D0
:102F10002978B99F0312297814A0031229781EA0DA
:102F20000312297842A00312297866A00312297897
:102F3000C4A00312297808A10312297824A103123E
:102F400029789BA103122978D3A1031229781FA203
:102F5000031229787CA20312297836A30312297858
:102F60001AA50312297873A503122978A3A60312C0
:102F70002978C9A60312297852A803122978CEAB62
:102F800003122978A0AD0312297869AF03122978BA
:102F900016B00312297881B10312297820B20312E6
:102FA00029786DB203122978D7B203122978E6B2D4
:102FB000031229786DB5031229789BB6031229787C
:102FC0002DB8031229789AB80312297879B9031217
:102FD000297892BA031229780FBC031229782EBCE3
:102FE0000312297883BC0312297888BD031229783B
:102FF000B0BD0312297808BE03122978E7BE031278
:1030000029782BBF0312297876BF03122978E1BFF4
:103010000312297822C10312297886C10312297864
:10302000D4C20312297834C50312297865C5031266
:1030300029781DC70312297872C70312297884C81A
:103040000312297821C9031229787AC90312297831
:103050002DCA03122978CFCA031229786FCB031225
:10306000297814CC03122978DF80011229781E8177
:1030700001122978658301122978A4830112297825
:10308000EE830112297809850112297879850112C8
:103090002978AE8501122978228701122978A5891D
:1030A00001122978CE8A01122978648B01122978BD
:1030B0006C9401122978019501122978E897011280
:1030C0002978DB98011229784999011229788F9A79
:1030D00001122978719B01122978569D01122978D5
:1030E000679F01122978D19F01122978A3A00112AC
:1030F0002978ADA001122978DBA00112297898A1C6
:10310000011229786FA20112297836A301122978B9
:10311000D1A301122978EBA30112297814A401127A
:10312000297836A4011229788CA60112297864A77F
:1031300001122978A8A70112297810A8011229786C
:10314000C8A801122978FAA8011229783EA901120B
:10315000297874A901122978C0A90112297815AA21
:10316000011229781AAA011229786DAA0112297868
:1031700092AA01122978A1AB0112297805AC01129B
:10318000297875AC0112297801AD01122978CEAFEA
:1031900001122978B2B00112297835B201122978CA
:1031A0006BB40112297819B501122978C9B5011239
:1031B00029780AB801122978ADB801122978F4B833
:1031C00001122978A0BA01122978B4BA011229781B
:1031D000BEBA01122978E6BA01122978F2BA0112B0
:1031E000297811BB01122978F8BC011229782FBD6A
:1031F000011229788ABD01122978D4BD01122978DB
:10320000DCBE0112297833BF0112297882C0011275
:103210002978C6C0011229786EC10112297851C2DD
:1032200001122978FCC20112297848C401122978B8
:1032300046C501122978ECC5011229787CC6011215
:10324000297893C601122978CAC601122978D4C6F2
:1032500001122978DEC601122978E9C601122978FF
:1032600007C7011229784BC701122978A8C7011294
:103270002978CDC701122978E7C70112297873C8C8
:103280000112297890C901122978FDC90112297803
:10329000E4CA011229780BCB011229787FCB0112E5
:1032A0002978FACB01122978FECC01122978F4CDC5
:1032B00001122978A3CE01122978B6CF01122978FC
:1032C00052D001122978DFD001122978BDD1011224
:1032D0002978F5D1011229784DD20112297816D317
:1032E0000112297837D301122978BED30112297827
:1032F000E2D30112297804D4011229784DD40112A5
:10330000297863D6011229784AD701122978FBD788
:103310000112297831DA0112297881DA011229782B
:10332000C1DA0112297803DB011229785FDB01126F
:1033300029788DDB01122978B1DB0112297804DCB0
:103340000112297832DC011229786BDC011229780C
:10335000C0DC0112297826DD011229787ADE0112FB
:1033600029789DE0011229780AE10112297833E1D8
:1033700001122978BEE10112297825E2011229788B
:1033800070E20112297894E201122978B8E2011260
:10339000297813E3011229782EE301122978E7E353
:1033A0000112297821E4011229784CEA04122978C3
:1033B00084EA04122978A5EA04122978E7EA0412BB
:1033C00029784DEB0412297857EB0412297867EB22
:1033D000041229789CEB04122978E5EE041229786E
:1033E0008FF0041229788FF2041229787880041261
:1033F0002978BE80041229789E8104122978A0823F
:1034000004122978A383041229782F8504122978BD
:103410008D85041229784A86041229786887041257
:103420002978D987041229781588041229786388A5
:10343000041229786D8804122978B1880412297839
:103440000D8904122978A88904122978258A041282
:103450002978F48A041229788D8B04122978AD8B8F
:1034600004122978E38B04122978148C0412297829
:10347000D58C04122978E58C04122978398D041230
:103480002978548D04122978668D041229786F8D5D
:1034900004122978C98D04122978258E04122978FE
:1034A000718E041229788C8E04122978BD8E041234
:1034B0002978DA8E04122978E68E041229785A9037
:1034C00004122978739004122978DA90041229786A
:1034D000ED9004122978FB9004122978AF91041220
:1034E00029789392041229789993041229782394C5
:1034F000041229782D94041229789A9404122978B8
:10350000B19404122978E394041229781C950412CA
:103510002978469504122978A79504122978C79529
:1035200004122978E595041229782B96041229783B
:103530005197041229789E9704122978CD97041286
:1035400029784398041229786B9804122978A49852
:1035500004122978B298041229780A990412297859
:10356000599904122978989904122978C899041253
:103570002978F49904122978FF99041229781D9A60
:1035800004122978DF9A04122978E99A041229781A
:10359000249B041229783A9B04122978439B041235
:1035A0002978989B04122978AC9B04122978BA9C3C
:1035B00004122978CD9C04122978E29C04122978FF
:1035C000849D04122978079E04122978C59E04124E
:1035D0002978D09E04122978FC9F0412297818A01B
:1035E000041229786AA004122978A9A00412297863
:1035F000BEA00412297820A104122978AFA10412D8
:103600002978FAA1041229784BA404122978C9A4B4
:10361000041229783EA50412297860A7041229789B
:1036200078A7041229787BA70412297887A70412A7
:1036300029789BA704122978A3A704122978D6A772
:103640000412297886A804122978FCA80412297883
:103650006FA90412297823AA04122978D8AA04127F
:103660002978F7AA0412297897AB04122978A3AB1A
:1036700004122978CEAB04122978D1AB0412297830
:103680003BAC0412297863AD041229783BAE0412D6
:103690002978C6AE04122978DFAF041229789CB0CD
:1036A00004122978D5B00412297806B104122978B9
:1036B000C4B104122978F4B104122978CFB20412EB
:1036C000297868B304122978F3B304122978A4B4D2
:1036D0000412297827B50412297859B504122978DB
:1036E0009AB50412297826D4041229788BD40412AE
:1036F0002978C8D40412297833D5041229785CD7E4
:10370000041229783BD904122978DFDC04122978C5
:1037100083DD04122978AFDD04122978CDDD04128F
:10372000297843DE041229786BDE041229789CDEA6
:1037300004122978E8DE0412297839DF0412297886
:1037400085DF041229784BC804122978C9C80412ED
:103750002978FFC8041229786BC904122978DECAB7
:1037600004122978FACA041229783FCB0412297866
:10377000CCCB0412297825CC0412297851CD04121F
:1037800029785FCE04122978BCCE0412297828CF7C
:103790000412297889CF04122978CACF0412297813
:1037A00077D00412297889D104122978CCD1041257
:1037B00029781AD20412297851D204122978F4D225
:1037C00004122978AFD3041229787BA30512297833
:1037D0008CA305122978DDA30512297822A40512ED
:1037E0002978CAA405122978E1A4051229781AA516
:1037F00005122978377200122978DB7200122978B5
:10380000897300122978147400122978CD76001279
:1038100029788078001229783779001229788C79F4
:1038200000122978A27C00122978387E00122978AB
:1038300045FE011229789DFF01122978BDDF04128F
:10384000297875E00412297895E004122978C6E0F9
:1038500004122978DDE004122978F1E004122978B5
:1038600051E10412297891E1041229781BE3041232
:103870002978C4E304122978A6E404122978F1E433
:103880000412297839E5041229787CE50412297894
:10389000E7E50412297808E6041229788BE6041279
:1038A0002978A2E60412297812E704122978A9E8F7
:1038B000041229787FE904122978C8E904122978CA
:1038C00022EA041229789CC905122978BDC905127B
:1038D0002978FFCA0512297829CB0512297872B8F0
:1038E00005122978EDB805122978F8B8051229785B
:1038F00019B905122978EAED0212297802F00212AC
:10390000297838F1021229781FF30212297877F307
:103910000212297838F402122978EAA102122978D1
:10392000ADF40212297877F502122978F3F5021224
:10393000297866F602122978E6F602122978E8F666
:1039400002122978EAF602122978ECF60212297896
:1039500009F70212297829F70212297853F702127F
:1039600029786FF702122978F3F7021229783EF8C6
:1039700002122978B9F8021229780EAA02122978BF
:1039800086CC03122978D8CD0312297803CE0312EE
:10399000297876CE031229789ACE03122978BACEE6
:1039A0000312297804CF031229782ECF0312297825
:1039B00050D00312297886D003122978B5D003128B
:1039C0002978FCD003122978ACD103122978CCD104
:1039D0000312297821D303122978A3D3031229785B
:1039E00099D40312297869D503122978D9D50312FD
:1039F00029782BD6031229785DD603122978BFD6F1
:103A00000312297823D7031229786CD70312297857
:103A1000A7D803122978DCD80312297839D90312E0
:103A20002978F0D9031229781EDA03122978B1DB3C
:103A30000312297825DC0312297858DC031229782F
:103A400094DC03122978ADDC0312297860DD0312BF
:103A500029782ADE03122978DEDE0312297873DF43
:103A60000312297826E003122978B2E0031229789C
:103A7000B28E05122978FE8E051229786C8F0512F8
:103A800029788D8F05122978A48F051229785490F2
:103A9000051229785D9005122978B09005122978D1
:103AA000D99005122978379105122978C891051205
:103AB0002978049205122978509205122978B79234
:103AC00005122978F0920512297876930512297843
:103AD000B59305122978F693051229782D940512CD
:103AE00029783F9405122978519405122978709409
:103AF00005122978799405122978319505122978CB
:103B0000719505122978EA9E05122978BF9F051242
:103B10002978D99F05122978EA9F0512297803A2EE
:103B20000512297822A20512297886FF0312297826
:103B300065C5051229789BC505122978E6C50512C9
:103B4000297834C70512297868E103122978B3E28D
:103B500003122978EFE203122978A6E403122978E8
:103B6000CFE40312297867E703122978A7E7031245
:103B7000297848E903122978E2E9031229784AEA08
:103B800003122978D7EA031229780FEB0312297858
:103B90004FEB03122978E2EC0312297881EE03122D
:103BA0002978D0F003122978FEF0031229782AF13F
:103BB0000312297833F1031229788EF10312297840
:103BC00024F2031229784DF503122978D2F5031255
:103BD0002978D6FF03122978ECFF03122978DEAE8C
:103BE00005122978F3AE0512297890AF05122978CD
:103BF000CCAF05122978E3AF051229780AB0051277
:103C000029784FB00512297880B005122978B8B00C
:103C10000512297840B20512297849D5051229786C
:103C200086D505122978C8D505122978D8D5051268
:103C30002978CFB50412297827B6041229788EB6D0
:103C40000412297882B7041229781DB80412297841
:103C5000F8B8041229780DB90412297857B904125A
:103C60002978ADB90412297802BA0412297815BA54
:103C7000041229786DBA04122978E6BA0412297858
:103C8000FABA041229783ABB0412297838BC041213
:103C9000297893BC04122978BFBC041229782FBD5F
:103CA00004122978C0BD04122978CEBD04122978E7
:103CB000EFBD041229783ABE0412297850BE0412CE
:103CC00029785DBE041229788DBE041229789FBE22
:103CD0000412297833BF041229783EBF04122978D0
:103CE000A4BF04122978FEBF0412297863C004120D
:103CF000297894C00412297803C30412297834C3A4
:103D000004122978CAC3041229784BC404122978F2
:103D10007BC404122978B7C40412297810C5041290
:103D20002978FFC50412297829C60412297833C6D8
:103D30000412297850C604122978D8C604122978AA
:103D400001C7041229781FC7041229784BC704122F
:103D5000297886C70412297895C704122978A0C744
:103D600004122978E1C704122978F4C704122978CB
:103D70001BC804122978F5D6051229780DD705122B
:103D800029785B8705122978AA870512297859892D
:103D9000051229781E8B05122978628B0512297865
:103DA0004F8C05122978808D05122978A28D051275
:103DB0002978FE8D05122978828E05122978AF4C5C
:103DC00000122978D04C001229784D4D0012297824
:103DD000964D00122978E74D00122978634E0012A3
:103DE0002978CC4E001229781D4F00122978A14F56
:103DF00000122978365000122978C1500012297813
:103E00000251001229785A5500122978E056001202
:103E100029781957001229786857001229787B5A97
:103E200000122978095B00122978AC5C001229780D
:103E3000E15D00122978E55E00122978595F0012D1
:103E400029782160001229789060001229789E60FC
:103E500000122978646100122978AE620012297874
:103E6000D764001229787F67001229784B68001206
:103E70002978786900122978F56C00122978056D87
:103E8000001229783F6E00122978E46E001229781A
:103E9000027000122978287100122978A771001287
:103EA00029786BE40112297828E501122978A5E523
:103EB00001122978B4E5011229783DE6011229782A
:103EC000B5E601122978C0E701122978E9E7011265
:103ED000297891E801122978E4E80112297850E95B
:103EE000011229781FEC01122978CFEC01122978F0
:103EF0003EED01122978CFEE0112297887EF0112E9
:103F0000297824F00112297885F001122978FFF030
:103F100001122978F8F101122978D9F201122978D1
:103F200028F30112297861F30112297875F301123F
:103F30002978BEF30112297842F401122978B8F5E4
:103F40000112297886F7011229787BF80112297865
:103F5000C9F901122978DEFA0112297883FB0112CE
:103F60002978F4FB01122978C5FC01122978C1D007
:103F70000212297843D102122978ADD10212297890
:103F8000FDD10212297845D2021229780CD30212EF
:103F9000297863D302122978AED30212297805D486
:103FA0000212297855D402122978D5D5021229781F
:103FB00037D602122978CCD602122978FDD6021201
:103FC0002978FAD70212297874D80212297884D96C
:103FD000021229789EDA02122978B4DA02122978BC
:103FE000F0DA021229787DDB0212297850DC021205
:103FF000297874DC02122978A2DC02122978FDDC0F
:10400000021229783ADD0212297843DD021229785A
:1040100066DD0212297885DD02122978ACDD0212F4
:104020002978C4DD0212297881DE02122978B6DFF0
:104030000212297805E002122978A4E002122978F8
:10404000EEE0021229786BE102122978B0E1021247
:10405000297827E202122978D7E3021229789EE410
:1040600002122978F2E5021229780FE70212297864
:10407000AEE802122978DEE802122978EEE902128F
:104080002978BDEA0212297810EB0212297828EB70
:10409000021229781DEC0212297835ED02122978D6
:1040A0007CB505122978B7B50512297871B60512C5
:1040B0002978D7B60512297848B705122978DCB7D0
:1040C0000512297810C8051229783DD305122978E0
:1040D0004ED305122978EED30512297879CB051233
:1040E000297887CB05122978ECFF01122978E2D5CF
:1040F00005122978F2D5051229780AD605122978F1
:104100006BD60512297839D205122978BED205124C
:10411000297824D30512297808D4051229780BD4DC
:104120000512297844D40512297897D405122978E4
:10413000CDA705122978DBA70512297855A8051205
:10414000297839A905122978F2AA05122978D57F8C
:10415000001229783BBB05122978D9BB05122978B2
:1041600020BC0512297864BC0512297829BD0512E6
:1041700029785ABD0512297889BD051229789CBD78
:1041800005122978B1BD05122978BFBD051229781D
:10419000D0F90212297825FA0212297821FC02129C
:1041A000297853FC0212297875FC021229788EFCBA
:1041B00002122978A7FC02122978B1FD021229788F
:1041C0004CFE021229788BFE02122978AFFE0212F1
:1041D0002978C8FE0212297807FF021229783AFFCF
:1041E000021229786AFF02122978D2FF0212297876
:1041F000D5FF02122978DFFF02122978ECFF0212A4
:10420000297801BE0512297829BE051229786ABECF
:10421000051229787CBE0512297897BE05122978E7
:10422000FFBE051229780BBF051229786ABF051257
:1042300029788EBF051229784FC0051229785CC0F5
:10424000051229786DC005122978D3D7051229786F
:10425000F0D705122978DE950512297840970512C6
:1042600029784697051229785D97051229787E9757
:1042700005122978949705122978A89705122978AC
:104280002798051229788C98051229782299051209
:104290002978FB99051229780B9A051229781A9A20
:1042A00005122978B0D405122978D4D405122978BA
:1042B000FCD40512297824D5051229789BC0051253
:1042C0002978C2C005122978E3C00512297855C1A2
:1042D0000512297807C30512297820C30512297809
:1042E00037C30512297840C3051229785EC3051229
:1042F000297868C30512297872C30512297885C305
:1043000005122978DAC30512297813C40512297811
:1043100041C40512297892C405122978DEC4051219
:104320002978F9C40512297803C50512297814C51E
:10433000051229785AC505122978847F0012297838
:104340002FF6031229785BF60312297879F6031207
:1043500029788CF603122978A7F60312297806F734
:104360000312297834F70312297843FB03122978C2
:1043700088FC03122978BAFC0312297826FD03125F
:1043800029786FFE0312297897FE03122978ACFE74
:1043900003122978BCFE03122978FCFE0312297847
:1043A00048FF0312297858FF03122978EECF05122F
:1043B0002978FECF051229781CD00512297837D02C
:1043C000051229785ED0051229787FD00512297848
:1043D00099D005122978D1D005122978F4D0051288
:1043E00029788DD70512297857AB051229785EAB4D
:1043F000051229787BAC05122978ABAC0512297817
:10440000D1AC0512297804AD0512297816AD051234
:10441000297852AD05122978B8AD05122978F4AD86
:10442000051229783BAE0512297868AE0512297865
:1044300089AE05122978B3CE05122978CBCE0512A4
:104440002978E8CF05122978EBCF0512297826D1F3
:104450000512297898D105122978D6D10512297824
:1044600017D20512297841F30412297857F3041260
:10447000297809F40412297804F504122978FCF546
:104480000412297894F604122978D3F604122978B4
:1044900044F704122978A6F704122978B6F7041213
:1044A0002978DDF7041229782FF804122978BDF94C
:1044B00004122978C2F904122978E4F9041229783F
:1044C00075D605122978A3D605122978D8D60512F3
:1044D0002978DAD605122978DCD605122978EDD6A6
:1044E00005122978EFD605122978F2D60512297817
:1044F00021CD051229788FCD05122978B1CD05126D
:104500002978E9CD051229781FCE051229784DB2F8
:104510000512297890B205122978AEB205122978D1
:10452000DFB40512297817B5051229783CB50512B4
:10453000297842D705122978008005122978D3807E
:1045400005122978CA8105122978DB81051229789C
:10455000EC81051229783882051229782984051200
:104560002978868505122978B685051229788286EC
:1045700005122978DF8605122978D8FB04122978DC
:10458000F7FB0412297846FC0412297862FC041215
:10459000297893FC04122978A3FC04122978B0FC32
:1045A00004122978BDFC04122978A5FD041229788B
:1045B000E3FD04122978EDFD04122978FAFD0412B6
:1045C000297808FF041229781AFF0412297825FF98
:1045D0000412297837FF0412297840FF0412297841
:1045E0004AFF04122978BFFF041229784B9A05125A
:1045F0002978729E05122978809E05122978C9FFB4
:1046000004122978BFA10212297877A10212297811
:10461000BE9F021229783E9F021229781A9F021229
:104620002978599E02122978D59D021229788E9CEC
:10463000021229783B9C02122978099C02122978DF
:10464000469B021229787199021229780299021266
:104650002978D49802122978D1980212297858978B
:104660000212297859960212297823950212297884
:10467000679402122978DD9302122978E3920212DC
:1046800029783F920212297886910212297849915D
:104690000212297866A9021229787DA702122978C8
:1046A00049A70212297816A702122978F0A6021249
:1046B0002978A79002122978129002122978019085
:1046C000021229786E8F021229788DA5021229789C
:1046D000388F02122978DF8E021229786D8E02122D
:1046E0002978388E0212297814A50212297860CC14
:1046F00003122978D98D02122978A88D02122978FF
:10470000708A021229782A8A021229781E8A0212D5
:1047100029787E8902122978BE880212297840867B
:1047200002122978D183021229788F830212297804
:1047300063820212297818820212297854810212A7
:1047400029782781021229786A800212297800804C
:10475000021229783A8002122978BEA20212297820
:1047600078F40200000080FBE473870001005B0620
:10477000240002000F0F25000200110F2600020086
:10478000130F27000200150F28000100170F290042
:104790000100180F84000400190F860001001D0F8E
:1047A0002A0001001E0F2B0001001F0F2C0001002A
:1047B000230F2D00080046062E000100240F2F00B5
:1047C0000100250F30000100260F31000100270FE6
:1047D000320001004E06330001004F063400010094
:1047E000280F36000100500638000100290F39005B
:1047F0000100220F83000200330F630001005A06FC
:1048000064000100200F65000100210F6D00010010
:10481000320F6E0002004406430001002A0F4400DC
:1048200002002B0F450001002D0F460002002E0F45
:1048300047000800520648000100300F4B000100FD
:10484000310F04000100350FA1000100380F3700BF
:104850000100370F88000100360F3C0001005106AF
:1048600000000000000000013636010100010201D5
:104870000001030100010401060605020000070112
:1048800000340801000F090401010D0100FF0E08AA
:10489000000017020000190100FF1A0100011B01AE
:1048A00000FE1C0100081D0200001F010001200184
:1048B0000001210200002301000F24020000260154
:1048C000000127010008280200FF2A0100072B0130
:1048D00002402C0100002D0100012E0100012F01DA
:1048E00000FF30010B1C310800003A0100083B01B9
:1048F000000F2F0100000300710030016000110063
:10490000700031022003500480001000610000009C
:104910001400630073007200620043000000130083
:10492000060000000000040012000000000000006B
:10493000000004000400370037003C02440000007F
:10494000000000000000650000003500810000004C
:10495000050000008300000001037103010301034F
:1049600001030103010322030203010310030003F7
:1049700000030003000300030003000342030003DD
:104980002403060300030003040312032503230387
:10499000250323030403040300030003000344036B
:1049A0000003000323030003650321003503810393
:1049B000000305030003000300030101710101016D
:1049C0000101110101013101010101018001100109
:1049D00061013B0014006301730172016201430134
:1049E0000001130106013D0135000401120100011F
:1049F00000010001000104010401330133013C0105
:104A0000440132013600000100016501000135005A
:104A10008101000105018201830100010304710489
:104A2000020460041104700402040204010402047C
:104A30001004610400041404630473047204620427
:104A400043040004130406040004000404041204D4
:104A50000004000400040004510464000004000485
:104A6000000444040004000400040004650400047D
:104A70003504810464000504000483040004030277
:104A80007102300160021102700201020202020290
:104A90008002100261023A00410063027302720256
:104AA0006202430200021302380000020002040204
:104AB0001202000200020002000204020402370097
:104AC00037003C0244020002390000020002650285
:104AD0000002350281020002050282028302000206
:104AE0000000DB3E1300573E0100DB3E0200DF3DCD
:104AF0000300E53D0400EB3D0500F13D0600FD3DF2
:104B000030001B3E3100153E3200273E33002D3E63
:104B10003500333E3400393E36003F3E11004B3EF7
:104B20001400513E15000F3EFFFF0000360001004B
:104B3000060000000F000000000000000000000060
:104B4000000003FFFF00000403FFFF0000FFFF0F52
:104B5000F4010005C4040320000100000B00000064
:104B6000000000000003010F01B33006E33008DD50
:104B7000300BF53010293002B93005D13007BF3085
:104B80000C95300DA730FF000003EAF5E5D5D5C53B
:104B9000B5A5959585857575656555554545353535
:104BA0002525151505273557352D3533355135450F
:104BB000353F355D35633569357535393521351BFB
:104BC0003500160F00000B150B020002220F3200F9
:104BD000000601030507090B0D0F00020406080A71
:104BE0000C0D5A6967426565416C6C69616E63655D
:104BF00030391D362F363536F1343B36EB34F73449
:104C00007D369B36A13683368F3689362B34253454
:104C1000613467345B341334303017181921301B7A
:104C20001D1F300001191618161615230300303009
:104C300016181920231A1C1E3000034948424D182B
:104C40001725050200383C3E363B3B352B432C0CE8
:104C50000E020B040B0A0708000F4B356F35953613
:104C60007B35813571364136473653364D36020431
:104C70000201010101090237343D3431346D340041
:104C8000BE040A4334553415000E0004007F00E8CA
:104C9000030000000028000C0008100C0A0308099B
:104CA00000040009FF1E1E0301040C10080F05C0BC
:104CB00082C0839005B9E4F0A3F07C057D037A35CA
:104CC0007B0512445D122E55790012474B02609706
:104CD00074F5122466E9FF8A08EBFEEF705A74023D
:104CE0006508703D90054E7408F0750A00780A1248
:104CF0002999ECF50A780A122999EEF50A780A1230
:104D00002999900F191227F7900F1DE0F97C527D19
:104D100006900F331264CE122E7974071229C380C5
:104D20001474016508701190054E7408F07B00EE54
:104D3000FAF9122EA3E960107CE87D037A017B006A
:104D400090054BE0F9123BF37F0302272F74F61214
:104D50002466E9FFEAFE7AD1F9123AA98A828B83A6
:104D6000E5824583702A7A027B00123A91EA4B7001
:104D70000E7A107B0090054BE0F9123ACD80148A30
:104D8000828B8374D1F0EFA3F0EEF9123A9D800389
:104D9000EFA3F0024F1874F712246689089004AF4D
:104DA00012708580248E828F83A3A3125A186012FA
:104DB0008E828F83A3A3125545125A18FAA908129E
:104DC0003DC78E828F83127160FFEE4F70D79004C3
:104DD000C6E0FAA908123DC71231C790051D125549
:104DE000051231C1026FF274F1122466890A8C082F
:104DF000750900750B00740F122C26125C9D74113E
:104E0000122C2612552D804AE50E124EB4F50CA335
:104E1000E0F50DE50BC333FEE433FFEA2EF582EB3C
:104E20003FF583E0650C7004A3E0650D7019E5099A
:104E3000C333FEE433FFEC2EF582ED3FF583E50C42
:104E4000F0A3E50DF00509050EE50EC3950840B881
:104E5000050BE50BC3950A5005750E0080EBA909FB
:104E600002628874F4122466890B7D00740C122C83
:104E700026125C9D80010DEDC3950B5032750A0022
:104E80008002050AE50AC39C50ECEDC333FEE4330F
:104E9000FFEA2EF582EB3F124EC4F509E50A124EE9
:104EA000B465087004A3E0650970D77901800279C0
:104EB0000002613EC333FEE433FFE82EF582E93F92
:104EC000F583E022F583E0F508A3E02274F61224CE
:104ED00066124F727003A3E06D701775084F750965
:104EE000057808122995EEFA123EE174021229C3E0
:104EF000801F75080275098078081229958C088D25
:104F0000097808122995124F64123F05740412297A
:104F1000C3800574021229C37F0202272F74F61280
:104F20002466124F727003A3E06D701775085C75EC
:104F300009057808122995EEFA123EE77402122943
:104F4000C3801F75080375098078081229958C089D
:104F50008D097808122995124F64123F05740412C6
:104F600029C380B4EE126FC6126C70FD7C80126192
:104F70004D22EAFEEBFF124F8AFAA3E0F9EA240081
:104F8000FCE439FD90051DE06C22124F9BEF126C82
:104F9000D7F8A3E0F988828983E022EE2413F58212
:104FA0002274F612246674FE122A28EAFEEBFF85AC
:104FB0001882851983E4F0A3F01262A5FA88828929
:104FC00083A3A3E0F97509007508006005C394F197
:104FD0004005750882802F90051DE06A7003A3E0EC
:104FE0006B7020851882851983AA82AB83123719CA
:104FF000E9F50985188285198312674870087508D4
:1050000083800375088185188285198312552DA91F
:1050100008EEFAEFFB123EEDE50960178518828570
:105020001983126748600C8518828519831264CE33
:10503000123B3F024F1374F2122466EAFEEBFF7537
:105040000A00750B001250AD1231C7EA65087003F3
:10505000EB65097012123725E914F50A79017A8592
:105060007B0512372B8003750B8012614312608C15
:10507000F50C780C122999750C85750D05780C12B4
:105080002995780A1229997808122995E50BF508CF
:105090007808122999125F4DF582EF126C187A0583
:1050A0007B80123EF374071229C3025CA71270B60C
:1050B000125CA188828983127190F508E439F509A0
:1050C0002274F6122466E9FE7F00802E8A828B838A
:1050D000124EC6F9E5082400E439F509EF33F8E487
:1050E00033F9EC28F582ED39F583E508F0A3E509FD
:1050F000F0EA2402FAEB3400FB0FEFC39E40CD022E
:105100004F1874E812246674FB122A288A168B172B
:10511000851882851983E4F07403122C26E4F0A329
:10512000F004122C26E4F0126E36F50AA3E0F50B1B
:10513000850A82F58312718CFEE439FF850A828527
:105140000B83A3A3E0FA850A82850B83A3A3A3E0C4
:10515000F9EAF508E439F509E50A2404F50AE50B4E
:105160003400F50BEEFAEFFB12325DE964016016D4
:10517000EEFAEFFB12325DE9703D90051DE06E70B6
:1051800003A3E06F6031126295122999E4F508F5E6
:10519000097808122995780812299990051D122777
:1051A000FF750880780812299912550B123EF37486
:1051B000071229C30254FB1255338810602EC333E3
:1051C000FAE433FB123B397403122C261255057492
:1051D00003122C2612674860137403122C261255F2
:1051E00025A910123DF78A0A8B0B80037510001257
:1051F0005533880F602AC333FAE433FB123B39740A
:1052000001122C261255057401122C2612674860D3
:105210000F7401122C26125525A90F123DF7800399
:10522000750F009004AF805D850A82850B83A3A370
:10523000A3A3A3A3A3A3E4F0A3F0AA0AAB0B851432
:1052400082851583A3A3125543125A18F9123A9D69
:10525000851282851383E0C0E0851882851983E07A
:10526000F8748528F58274051270AED0E01264D20D
:1052700004F0E511A2E05007AA12AB13123B3F85E0
:105280001482851583E0F514A3E0F515E5144515A2
:105290007003025468851482851583A3A3125A18DB
:1052A00060DD851482851583A3A3A3A3A3A3A3A371
:1052B000E0A2E050CA851482851583A3A3A3A3129C
:1052C0006748851482851583A3A3601F125A18FAB4
:1052D0007901851482851583A3A3A3A3125A1D12F5
:1052E00047688A128B13751101800F125543A3A3CF
:1052F000E0F512A3E0F513751100E51245137003F4
:10530000025272851282851383A3E065087004A39C
:10531000E065096003025272851282851383A3A39C
:10532000A3A3A3A3A31227FF851282851383A3A39C
:10533000A3A3A3A3E0FC7405122C261264CEA9102B
:10534000123DD974021229C3E9703C85128285137B
:1053500083A3A3A3A3A3A3A3A3A3A31227FF85129D
:1053600082851383A3A3A3A3A3A3A3A3A3E0FC7495
:1053700003122C261264CEA90F123DD974021229F1
:10538000C3E97003025272E50F2510C333240AFAF1
:105390007B00123A918A0A8B0BEA450B700302528A
:1053A000508A828B8374D2F0851682851783A3A3DB
:1053B000125C9D8A828B83A3A3125B038A828B83F8
:1053C000A3A3A3A3E510127196E50FF0E510603DCD
:1053D000EA2405FAEB3400FBE50A240AF8E50B346D
:1053E00000F98A828B83125B037403122C261255F8
:1053F0004D122991E510C333FCE433FD8A828B837F
:105400001264CE123A6D74031229C3800D8A828B06
:1054100083A3A3A3A3A3E4F0A3F0E50F70030252B8
:1054200028E510C333F8E433F9E50A28F8E50B3929
:10543000F9E8240AFAE93400FB850A82850B83A384
:10544000A3A3A3A3A3A3A31255057401122C261290
:10545000554D122991E50FC333FCE433FD123A6D2B
:1054600074031229C302523A851882851983E060B9
:105470002712629512299975088575090578081211
:1054800029957403122C2612629F12299990051DEA
:105490001227FF7508008029EEFAEFFB12325DE952
:1054A000702F12629512299975088575090578087B
:1054B000122995750800780812299990051D122760
:1054C000FF780812299912550B123EF3740712291E
:1054D000C37403122C26126748600B7403122C2627
:1054E0001264CE123B3F7401122C26126748600BE7
:1054F0007401122C261264CE123B3F74051229C38C
:105500007F1002272FEAF0A3EBF022E5162402FC1D
:10551000E5173400FDE51612615FE517126C71F9AD
:105520007A067B802212552DAA0AAB0B22E0FCA33F
:10553000E0FD22850A82850B83E0F8A385820A8537
:10554000830B22E0F8A3E0F5838882A322E0F50C28
:10555000A3E0F50D750E00780C2274F41224667425
:10556000F4122A288A088B09ECFEEDFF740B122C2A
:10557000267403F0122C26AA82AB8312445D1231EA
:10558000C1EAFCEBFD7403122C26AA82AB83124401
:1055900057E9600A1256AA6010E06401600B851892
:1055A00082851983748402565D8E828F83A3A3A3A0
:1055B000A3A3A3A3A3E06017C394F150121256AAA9
:1055C0007018125C8712608C6005C394F1400B85E3
:1055D0001882851983748202565DE508240CF582D1
:1055E000E50912608C64217002A3E0704D85188279
:1055F000851983748CF012569D1229991256B9128E
:1056000046F174011229C3E9705485188285198303
:10561000E4F0123D4F1256AA70447401122C26ACCD
:1056200082AD83125C8D1246CDE970327D007C0024
:105630007900125C8D123EB1802412569D12299978
:105640001256B91246DF74011229C3E98518828502
:1056500019837007E4F0123D4F80037488F0126FD5
:10566000C4E5091256A21229997401122C268582CA
:105670000A85830B780A122995E508240CF582E542
:10568000091256B04480F50B780A12299512600A67
:10569000123EA574051229C3740C02613BEE126719
:1056A0002BEF126C71F50A780A22126C6D640322DA
:1056B0001270BCE0F50AA3E022EE240BFCEF3400EC
:1056C000FD8E828F83A3A3A3A3A3A3A3A3A3126886
:1056D0003C8E828F83A3A3A3A3A3A3A3A3E0F92259
:1056E000C082C08374F3122A28851882851983E446
:1056F000F004122C261255057403122C26AA82AB34
:1057000083122D89851882851983AA82AB83122D75
:10571000C5740D1229C302609774F61224661257DD
:1057200058126ED6900557E058F508A3E059F509D0
:10573000E5084509601F780812299590051D122774
:10574000FF12614312608CFD7C00126149123EFF22
:1057500074041229C3024F18EAFEEBFF126C6DF8B5
:10576000A3E0F9888289832274EA12246674DB122A
:105770002A288A148B15751200751300125A12F517
:105780000E851882851983AC82AD837A007B0079FF
:105790009C122EB57A047900122DD7EAF50C8518E3
:1057A00082851983E0250CF0F8E50EC398400302CA
:1057B00059AEE0C3950EF509C3940440037509037F
:1057C000E50975F01AA4FAABF0123B398A128B1373
:1057D000EA451370030259B1750D00AE12AF13857F
:1057E0000E0802586F1259F7123A79850A82850B12
:1057F00083A3A3A3A3E07039850A82850B83126774
:10580000487012125C87126FB1EE2418F582EF1205
:1058100070AEE48016125A06F0900390E014C0E0D7
:10582000EE2418F582EF1270AED0E0125A53E480E5
:105830003B900390E004C0E0EE2418F582EF127074
:10584000AED0E0125A4BC39403EE40030259091242
:105850005C88126733125A4B64017003025916EECA
:105860002415125A09F0EE2416125A09125A26E586
:105870000DC39509400302593EE508C3950C40034A
:10588000025923A908122E498A0A8B0B0508900396
:105890007D125A3212445D850A82850B83125C9D0B
:1058A000EE2412F582EF126EBB125A60850A8285D1
:1058B0000B83A3A3A3A3A3A3A3A3A3A3E0C0E0EE8E
:1058C0002419F582EF1270AED0E0F07401122C268C
:1058D000E4F0850A82850B83125C9D7402122C26EB
:1058E000125B037401122C26AA82AB83122DB3E93A
:1058F000640160030257E57404122C26AC82AD8368
:105900001259FD12445D0257EB125A07125A4B64AA
:1059100003600302585FEE2415F582EF1270AEE4C7
:10592000025865E50CC3950E40057508008016E524
:105930000EC3950CF508800D125A06125A26E50D75
:10594000C39509506C740E122C26AC82AD83850869
:105950000AAA0A7B007987122EB505087418122C42
:1059600026125A3212445D1259F7123A79EE241275
:10597000F8EF3400F9740E122C261264CE88828956
:1059800083EAF0A3EB125A537403125A60741D1287
:105990002C26E0C0E0EE2419F582EF1270AED0E0C4
:1059A0001267707093125C871270AEE4808D750977
:1059B00000750A00780A1229997812122995780937
:1059C000122999E50EF50978091229997405122C06
:1059D00026E0FD7C00126C07123F3B74051229C3C0
:1059E000E51245136007AA12AB13123B3F74251250
:1059F00029C37F0E02272F7C087D0079FFEE240A41
:105A0000FAEF3400FB22EE2414F582EF1270BC741E
:105A100001221270DE1270BC125A1DE022E0F8A3BF
:105A2000E0F583888222F0EE241AFEEF3400FF05B1
:105A30000D22125CA18E828F83E8F0A3E9F07C91A5
:105A40007D03EE2402FAEF3400FB221270D1A3A3EF
:105A5000A3E022F0EE2415125A7024161270B92217
:105A6000F0EE2417125A7024181270B974FFF02245
:105A7000F582EF1270C07402F0EE2274F612246602
:105A800074F9122A288A088B09127215123A858530
:105A90001882851983122C0F125AF5C0E074041273
:105AA0002C26D0E0126FF7E0FA7405122C26740150
:105AB000F07406122C267401F0900527F090053042
:105AC000041270E4A3125C9D900528125B03EA9017
:105AD0000531F0E50812615FE50912608C9005263A
:105AE00012628DAA82AB83122E6DE96003122E73AF
:105AF0007407024F15EE2404FEEF3400FF8E828FF0
:105B000083E022E8F0A3E9F02274F212246674FF25
:105B1000122A287508007E007F001230E98A0A8B5D
:105B20000B1230E98A0C8B0DA80CA90D8005050815
:105B3000125C96E84970F71230E98A0C8B0DA80CBC
:105B4000A90D8003125C96E849603488828983122B
:105B500064CE90037DE06A7003A3E06B600B126774
:105B60002AE91264CAEA4B70DB88828983125C9D41
:105B700090037DE0687003A3E0697003025C0E7A15
:105B8000167B00123B398A0C8B0DAE0CAF0DEE4F1D
:105B9000607C90037D125C9D8E828F83125B0390EC
:105BA0000372E08E828F83A3A3F0123245E98E82C6
:105BB0008F83A3A3A3A3A3F0900F1E1270C5F07C44
:105BC000917D03125C8D12445D851882851983AA2C
:105BD00082AB837941124583851882851983E06001
:105BE0000890051D125C9D800478FE79FF8E828FDF
:105BF00083A3A3A3A3A3A3A3125B03125C871270C6
:105C0000AEE50AF0A3E50BF08E0A8F0B05089005B0
:105C100031E0F8E508C39850047A008022E508C313
:105C200098FAC3940640027A057900800DE50A12BD
:105C3000672BE50B1256B0F50B09E9C39840EE75DA
:105C400009007809122999780A122995EAF5097844
:105C500009122999900531E0F5097809122999ADC1
:105C6000087C007A287B05900526E0F9123F357400
:105C7000051229C3EE4F6007EEFAEFFB123B3F120D
:105C80002E7374010250A7EE12672BEF22EE240B45
:105C9000FAEF3400FB2212672AE91270BC125CA1F1
:105CA00022E0F8A3E0F9227F0602272F74EC1224E9
:105CB0006674FF122A288A0A8B0B7E008E0E8E0FC6
:105CC000125A12FF851882851983AC82AD837A003F
:105CD0007B00799D122EB5851882851983E0F8EF37
:105CE000C3984003025D88E0C39FFEC3940B40024B
:105CF0007E0AEE75F007A4FAABF0123B398A088BE6
:105D0000098A0E8B0FEA450F607C750C00801785A1
:105D10000882850983A3A3A3A3A37403F0E5082441
:105D200007127045050CE50CC39E505CAC08AD092C
:105D3000850C108F12E5102512FAE43400FB798BE4
:105D4000122EB5850882850983A3A3A3A3A3E0141B
:105D5000600814601314601F80B58508828509836C
:105D6000A3A3A3A3A3E480B4850882850983A3A386
:105D7000A3A3A3740180A5850882850983A3A3A397
:105D8000A3A3740280967E007508007808122999F2
:105D9000780E122995EEF5087808122999EFF50882
:105DA00078081229997405122C26E0FD7C00E50A7A
:105DB0002402FAE50B3400FBE50A12615FE50B12E1
:105DC0006C18123F4174051229C3E50E450F600798
:105DD000AA0EAB0F123B3F74011229C37F0C02279E
:105DE0002F74EA12246674FE122A288A148B157501
:105DF0000A00750B00125A12F5088518828519835E
:105E0000AC82AD837A007B0079A31246D985080C59
:105E1000851882851983125C9DC3E50C98E499501E
:105E20007F851882851983E0C3950CFEA3E094005A
:105E3000FFC3EE9404EF940040067E037F008004CD
:105E4000EE4F605CEEFAEFFBEA75F015A4FAA8F0ED
:105E500075F015EBA428FB123B398A0C8B0D8A0ACE
:105E60008B0BEA450B6039750900750E00850E1025
:105E7000C3E5109EE49F502DAC0CAD0D850E128530
:105E80000810E5122510FAE43400FB79A21246D975
:105E9000E50C2415F50CE50D3400F50D050E80CD4F
:105EA00075098B7E00750C00780C122999780A12FE
:105EB0002995EEF50C780C12299978081229997415
:105EC00005122C26E0FDAC09126C07123F47740541
:105ED0001229C3E50A450B6007AA0AAB0B123B3F28
:105EE00074020259EF74F612246674FF122A28EA2B
:105EF000FEEBFF124F9BEF126FEAA3A3A3A3A3A392
:105F0000A3A3E0F9122E91E9851882851983F07513
:105F1000080078081229997401122C2685820885B8
