:020000040000FA
:10000000021B3E022003FFFFFFFFFF02200BFFFF4A
:10001000FFFFFF022013FFFFFFFFFF02201BFFFF78
:10002000FFFFFF022023FFFFFFFFFF02202BFFFF48
:10003000FFFFFF022033FFFFFFFFFF02203BFFFF18
:10004000FFFFFF022043FFFFFFFFFF02204BFFFFE8
:10005000FFFFFF022053FFFFFFFFFF02205BFFFFB8
:10006000FFFFFF022063FFFFFFFFFF02206BFFFF88
:10007000FFFFFF022073FFFFFFFFFF02207BFFFF58
:10008000FFFFFF022083FFFFFFFFFF02208B902076
:1000900000000100000000C80300FFFFFFFFFFFF9A
:1000A000FFFFFFFFFFFF0403090424035400650062
:1000B000780061007300200049006E007300740036
:1000C000720075006D0065006E00740073002403FB
:1000D0005400490020004300430032003500330043
:1000E000310020005500530042002000430044002E
:1000F000430000035F005F00300058000000000074
:1001000000000000000000000000000000000000EF
:100110000000000000000000000000003031323319
:100120003435363738394142434445466218B718AA
:10013000B718B718B718BF1874F71217FC12076072
:100140006003020216A3E0F8A3E06003020216A314
:10015000E064027002A3E060030202169005B4E0BE
:100160002480600914604F14605C020216E860038A
:100170000202169005AEE0600478018002780090DB
:1001800005BCE8F0A3E4F09005ADE0600A9005BC82
:10019000E04402F0A3E4F09005A2E064046014904F
:1001A00005AF74BCF0A37405F0A3E4F0A3740212CD
:1001B00007C2F002084290059BE064047058900565
:1001C000BCE4F0A380D0E8547FF50890059BE06480
:1001D000047043E508C39406503C749B2508F582DF
:1001E00074053400F583E854806018A3A3A3A3A387
:1001F000A3A3E0640370047801800278009005BC3A
:10020000E88090E582240CF582E5833400F583E0F4
:10021000640370E780E19005A27404809574F7127E
:1002200017FCE9FE9005BA1207636003020303900E
:10023000059BE06404600B9005B81207636003023D
:1002400003039005B4E0541F60091460301460206B
:100250000203039005B6E064017022EE9005ADF054
:1002600060047905800279067A001217FA02030900
:100270009005B8E0547FFA9005B6E0600579000279
:10028000030BEAC39406507BEA90620EF08A08746E
:100290009B2508F874053400F99005B8E054806097
:1002A0002CEE6004741080027440906211F0EE60D5
:1002B0000474038001E488828983A3A3A3A3A3A376
:1002C000A3F0EE6004790880317907802DEE600498
:1002D000742080027480906214F0EE6004740380D5
:1002E00001E4C0E0E8240CF582E93400F583D0E0B5
:1002F000F0EE6004790A800279091217FA90620E12
:10030000E480059005A27404F079010208427900A6
:1003100012021DE970031217E922790112021DE988
:1003200070031217F822C082C0839005B8120763C9
:100330007015A3120763700F9005B6120504548060
:10034000FAE9FBEA4B60079005A27404801AE89072
:100350006200F090059B6009E06402700C740380F9
:1003600007E0640370037402F0D083D0822274F338
:100370001217FC9005B6E0FAA3E0146008146010B0
:1003800014603B80591213E51204E1A37B80804383
:1003900079001214071204E17B80E92402F9EA349F
:1003A00000FA121A8FFC1919E0FAA3E92403F9EAFA
:1003B0003400FA121A8FF9ECA3F0A3E9801CEAF9D1
:1003C0001214759005AFEAF0A3EBF0A3E41204F069
:1003D000A37B00121A8FA3F0A3E4F002049B900504
:1003E000AFE4F0A3F0A3F0F50B900660E0FAA3E011
:1003F000FB02047675090074037808121B2BEA25AA
:1004000008F8EB3509F99005B61204FAE493C0E058
:10041000EFFCD0E06C705DA3E4936E70579005B86C
:100420001204FAA3A3E493C0E0EFFCD0E06C7044A4
:1004300088828983A3A3A3E4936E7038888289831A
:10044000A3A3A3A3E493F508740193F5099005AF62
:10045000E508F0A3E509F0A37480F088828983A3FE
:10046000A3A3A3A3A3E493F8740193F99005B2E8BE
:10047000F0A3E9F0050B850B08900662120504C392
:100480009AF50CE99BF50D7403780C121B4DC3E52E
:1004900008950CE4950D50030203F49005AFE0FCC1
:1004A000A3E0FDA3E0FEEC4D4E9005A270047404A1
:1004B0008029E0640460259005BAE0FAA3E0FB908F
:1004C00005B2E0F8A3E0F9C3EA98EB99500890056B
:1004D000B2EAF0A3EBF09005A27401F07F060219D6
:1004E000AD9005AFEAF0A3EBF0A374801204F02204
:1004F000F09005AFE0F9A3E0FA22E0FEA3E0FF8868
:1005000082898322E0F8A3E0F9E82274EE1217FC56
:10051000EA2404F8EB3400F9880889098882F58315
:10052000E4936025900664120504FEE98007EE243A
:1005300004FEEF3400FF8E828F83E493F8740193FE
:10054000F9EA687002EB6970E5750C008040906212
:10055000147490F074101206617003750D408E8251
:100560008F83A3A3A3E49355106006E50DD2E0F5B5
:100570000DE50D906215F0EA906213F0EC240CF595
:1005800082ED3400F583E4F090620EF0050C8508EE
:1005900082850983E493F8E50CC398400302065C66
:1005A0007A0079051213788A0E8B0FEA450F60DC0A
:1005B000EA2402F8EB3400F9880A890B8882F58373
:1005C000E493540FF51290620EF0750D008A828B41
:1005D00083A3A3A3A3E4932407F510A3E493340017
:1005E000F51174037810121B4DAA10851210749B1C
:1005F0002510F874053400F9E8FCE9FD7510017563
:100600001100E5127810121B2BE50E2403F8EB34D1
:1006100000F9850A82850B83E493A2E74003020573
:100620004E9062117448F074081206617003750DE3
:10063000408E828F83A3A3E49355106006E50DD20C
:10064000E0F50DE50D906212F0EA906210F08C82F8
:100650008D83A3A3A3A3A3A3A30205867F0B0219E3
:10066000ADF088828983E4935403640122C082C080
:10067000831207607010A3120763700AA3E064017D
:100680007002A3E060079005A27404800C9005AF8F
:10069000749CF0A374051207B8F002036974F41295
:1006A00017FC90059BE0640260149005B812076384
:1006B000700CA312076370069005B7E060099005FF
:1006C000A27404F002075B7A0079011217FA900510
:1006D000B6E060727A00F91214078A088B09EA45BD
:1006E00009605B90059B7404F09005B6E090059C52
:1006F000F0750C00850882850983A3A3A3A3E49366
:10070000F8E50CC398504D850C0A749D250AF874C1
:10071000053400F9E8FEE9FF8E828F83E4F07A0069
:1007200079041213788A828B83A3A3A3E493F88EAF
:10073000828F83E06870E712050B050C80B6900588
:10074000A27404F0800E90059CF090059B7403F059
:10075000F912104C7A0079021217FA7F050219ADCE
:100760009005B6E0F8A3E0F9E8492274F61217FC08
:1007700090059BE0640470199005B4E064817011E9
:10078000120760700C9005BAE064017002A3E0608B
:10079000079005A27404801A9005B8E0249DF5081E
:1007A000A3E03405F5099005AFE508F0A3E50912CB
:1007B00007B8F07F030219ADF0A3E4F0A304120719
:1007C000C222F0A3E4F09005A2042274F71217FCF1
:1007D00090059BE0640470649005B4E06401705C73
:1007E0009005BA12076370549005B6E0FB9005B807
:1007F000E0FA90059CE0F912143F8A088B09AE08D4
:10080000AF09EE4F60369005B8E0FA79031217FA97
:100810009005B6E0C0E09005B8E0249DF8A3E03470
:1008200005F988828983D0E0F0EEFAEFFB12050B20
:100830009005B8E0FA79041217FA80069005A274C0
:1008400004F07F020219AD74F81217FC74FF121A3B
:10085000C27E00801C120ACAE9FE900383E4F09075
:100860000385F0851882851983E0F8900382E0689B
:10087000F07901851882851983AA82AB831211CB86
:10088000E97003020959E0C0E0900385E0F89003A5
:1008900083E0FAE82AF8E43400F9740028F5827459
:1008A0000339F583D0E0F0900385E06011146020F7
:1008B00014603E14604E14606414607A80A585183C
:1008C00082851983E064FE709A900385740180929A
:1008D000900382E4F0851882851983E0900384F008
:1008E000C394809003854004E40208627402020805
:1008F00062851882851983E0900380F090038574E7
:1009000003020862851882851983E0900381F090C4
:100910000384E060199003857404020862900383E5
:10092000E004F0F8900384E0686003020863900339
:10093000857405020862900382E0F88518828519A3
:1009400083E068600302085A900380E0644D60030E
:10095000020855120B90020858EEF97401121A752C
:100960007F010219AD74ED1217FC74FB121AC275E7
:1009700008047509007808121AF27402121B69AC97
:1009800082AD837A907B0079041215987402121A52
:1009900075851882E0F47003A3E0F4600F85188277
:1009A000851983E0F8A3E0F9E8497003020ABE74F0
:1009B00002121B69E0687003A3E0697003020A98E1
:1009C00075080075100075112075120075130080F0
:1009D0000A9005BE7810121B03604C750A01750B56
:1009E00000780A121AF27406121B69AC82AD838574
:1009F000100A85110BAA0AE50B5407FB8A0C851116
:100A00000D85120E85130F740B780C121AA9A90C00
:100A10001215987402121A75E0F9AA08AB09120DA2
:100A2000828A088B09800C7510937511207512004D
:100A30007513009005C27810121B189005C6781027
:100A4000121A3B508CE4F9120D82E4F9120D8274F3
:100A500002121B69EAF0A3EBF07508017509007832
:100A600008121AF27402121B69AC82AD837A247BDD
:100A70000812161D7402121A757508047808121AE5
:100A8000F27402121B69AC82AD837A907B00790408
:100A90001215987402121A75120D07121B69E0687C
:100AA0007003A3E0697017851882851983E0F470DC
:100AB00003A3E0F46008E84960047901800279004A
:100AC0007405121A757F0C0219AD74F51217FC7EAD
:100AD00000900380E06427701D900381E0600302B2
:100AE0000B89900304E4F09003107480F07B0E7A7D
:100AF000007967120D15900380E064216003020BFA
:100B000089900381E0702F7B007A807961120D1546
:100B10008E088E09750A048E0B009005CA7808129B
:100B20001B18E5084509450A450B70EDC2AF75C9AC
:100B3000AB75C95B80FE6401702C120965E99003F6
:100B40000460047475800274B5F0A37432F0A37469
:100B500001F0A3E4F07B047A017961120D15900392
:100B600080E064217023900381E0644B701B1209C4
:100B700065E990030460067475F00E800374B5F0A7
:100B80007B017A4B7961120D15EEF97F040219ADE4
:100B900074F31217FC74FC121AC2900304E0FAA357
:100BA000E0F8E4C8F9EA2400FEE93408FF750A0118
:100BB000880988088E0C8F0D7409780C121B4DA9BA
:100BC0000CEEF50CEF5401F50D900381E01460126A
:100BD000146038146078146003020CE77508020290
:100BE0000CE7750802EA450D7003121683750C10A8
:100BF000750D00780C121AF27C067D03EEFAEFFBFD
:100C000012161D7402121A75020CE7750802E9C368
:100C100094794006750901020CE7750A40750B00CE
:100C2000780A121AF27C077D037402780C121B2BCF
:100C3000AA0CAB0D1215987402121A75900305E0F8
:100C4000A3F0900304E0A3F0750A43020CE7750CCF
:100C500004750D00780C121AF27402121B69AC8232
:100C6000AD837A907B0079041215987402121A757C
:100C70007402121B69E0F8A3E0F9851882851983D4
:100C8000E0687003A3E0696047120D07121B69E872
:100C9000F0A3E9F0750C01780C121AF27402121B21
:100CA00069AC82AD837A247B0812161D7402121A75
:100CB00075750C04780C121AF27402121B69AC825E
:100CC000AD837A907B0079041215987402121A751C
:100CD000120D07121B69E0687003A3E069700575C7
:100CE00008018003750907E509900304F0AB0A9039
:100CF0000381E04480FA794D120D15A9087404129D
:100D00001A757F060219AD851882851983E0F8A34C
:100D1000E0F974022274F81217FCE9FEEAFF8B086E
:100D200074042508FD90030074FEF0EE900302F0B9
:100D3000EFA3F0EB900301F0EDF83395E0F97400C8
:100D400028F8740339F988828983E4F07C01801AD9
:100D5000ECFA3395E0FB74002AF58274033BF583CB
:100D6000E0FA88828983E06AF00CECC39DA2D26528
:100D7000D03340DC74012CF97A007B0312120B0291
:100D80000960C008C0097C088A088B09740F7808BC
:100D9000121B4DEAC333FAEB33FBE9A2E7500474AC
:100DA000014AFAE508A2E0500874216AFA74106B4F
:100DB000FBE9C333F91CEC70CFD009D00822C08204
:100DC000C0837A0079011214078A828B83A3A3A3BC
:100DD000A3A3A3A3E493A2E69005AE5004740180FC
:100DE00001E4F09005ADE4F090620F7403F0E0A22E
:100DF000E750FBD083D08222C082C08390059B74D1
:100E000002F0A3E4F09005A2F0790312104C7521D2
:100E10000075220080DD74F61217FC90620EE0FE71
:100E2000E4F0906211E0FFA2E4501D7480F09005A0
:100E3000A27407F0E521452260098521828522837D
:100E4000121B7B9005A2E4F0EFA2E2500B9062111E
:100E5000E4F09005A2F080629005A2E0F8740268C8
:100E60007041906216E0FF9005AF1219EDEFF97A2C
:100E7000207B621210847403121A758F089005B2D9
:100E800012102112102CE0F8A3E0F9E84960047474
:100E90004080027448906211F0E849600302101724
:100EA000020FF37406687009852182852283121B64
:100EB0007B9005A2E06003020FA3EFA2E0400302D3
:100EC00010177508B4750905750A007808121AEE2E
:100ED00079087A207B621210847403121A757521C6
:100EE000007522009005B4E054E0601D24E070031A
:100EF000020F7F24E0607224C0604824E070030287
:100F00000F8A24E0606E020F95A3E014602624FE91
:100F1000601D24FE600A24FC601F24FE6020807592
:100F20001203269005A2E06404707274608070124F
:100F3000031A80EF12030E80EA12069D80E5120765
:100F4000CB80E0A3E0600E24FA600F24FE60102442
:100F5000FE6011804012013880C912036E80C412F5
:100F6000066D80BF12076B80BA7521E575221712D6
:100F700017E580AF7521E77522171217E780A47572
:100F8000218075221712178080997521B07522175C
:100F90001217B0808E9005A27404F0808E74409079
:100FA0006211F09005A2E0F8740168705C7F029015
:100FB00005B2E0F8A3E0F9C3E89420E994005007F3
:100FC000E8F50A7F0A8003750A209005AF1219ED33
:100FD000A90A7A207B621210A97403121A75850A75
:100FE0000812102C121021EF906211F0E50AC39440
:100FF000205024E521452260098521828522831223
:101000001B7B9005A2E4F0800E74056870098521B1
:1010100082852283121B7BEE90620EF07F03021901
:10102000ADC3E09508F0A3E09400F0229005AFE096
:10103000F9A3E0FAA3E0FBE92508F9EA3400FA9005
:1010400005AFE9F0A3EAF0A3EBF0A32274F71217BF
:10105000FC7800880874A32508F5827405121078BE
:1010600040F17800880874A82508F58274051210EC
:101070007840F17F020219AD3400F583E9F008E809
:10108000C394052274F61217FCEAFCEBFDE9F87430
:101090000A121B691210D9600D8C828D83E0121A1E
:1010A000D81210CE70F302101C74F61217FCEAFC72
:1010B000EBFDE9F8740A121B691210D9600D121ABF
:1010C0008F8C828D83F01210CE70F302101CE924F5
:1010D0000109EA3400FA18E822E0F508A3E0F5096E
:1010E000A3E0A908AA09FBE822C082C083800312FA
:1010F00016DFA2E840F9A823E8540460097823E643
:1011000054FBF6120DF8A823E8541060097823E682
:1011100054EFF6120E16A823E8A2E05005782354E7
:10112000FCF690620EE0FA7404F0906214E0A2E023
:101130005042E5A8F8C2AF906216E0F9A3E0E9FBDF
:10114000E8A2E792AF801F906228E0C0E090038F92
:10115000E0F8749028F58274033400F583D0E0F051
:1011600090038FE004F0EBFC74FF2C1B0470D8900C
:101170006214E4F0EA90620EF0E0FD7404F0906214
:1011800011E0A2E0403B900491E0F8900490E06808
:10119000602F7A40900490E0F8749228F5827404ED
:1011A0003400F583E0906228F0900490E004F008A9
:1011B000900491E06860041AEA70D9906211740199
:1011C000F0ED90620EF0D083D0822274F81217FCFA
:1011D000E9FE7900801F90038EE0FC74902CF5826C
:1011E00074033400F583E08A828B83F090038EE0F1
:1011F0000412123E0990038EE0F890038FE06860BD
:1012000005E9C39E40D07F010219ADC082C0838032
:10121000228A828B83E0C0E0900491E0FC74922CDF
:10122000F58274043400F583D0E012123E900491EC
:10123000E004F0E9F874FF28190470D58088F08A7A
:10124000828B83A3AA82AB8322794A1212E053BE17
:10125000FBE59DA2E650FA0078F8790100E824FF4A
:1012600018E934FFF9E84970F375C6807480659E0B
:1012700070FA43BE049062707408F01212D553F4F1
:10128000FEC29043FE017403F5D575D48690059295
:10129000E4F0A374C2F0A37401F0A3E4F0A3F0A3FC
:1012A000F0A37408F0120DBE7AFF7BFF12169A535A
:1012B000F4FED29043FE011212D5794E1212E012C2
:1012C00012F6120965E96003121356C2AF75C9AB75
:1012D00075C95B80FED28043FD01C29143FE0222AC
:1012E000781075B60FE5B4A2E750FAE5BBC3994094
:1012F000F118E870ED2274F11217FC750C00750DF1
:1013000000750E00750F00794E1212E01210E9857B
:101310000D099005C2780C121B18E5095440600AAB
:10132000A2805004C2808002D280120847E9640182
:1013300070DA750800750900750A04750B000090D5
:1013400005CA7808121B18E5084509450A450B70BF
:10135000ED7F080219ADC280D291A29250FCA293F7
:1013600050F8D280C291022000C2AF75C9AB75C9D6
:101370005B80FED083D08222C082C083E9FCEAFD7C
:101380007A007B0080031213C3900599E0F8A3E074
:10139000F990065EE0687003A3E069602490059A06
:1013A000E0F5838882A3E493F8EC68700D900599CA
:1013B000E0FAA3E0FB1213C38007ED6870C8ED608C
:1013C000C580B0900599E0F8A3E0F5838882E493A6
:1013D000F8900599E028F8A3E03400F9900599E821
:1013E000F0A3E9F022C082C0831213F67A007901DB
:1013F00012137802137390065CE0F8A3E0F99005ED
:1014000099E8F0A3E9F02274F71217FCE9FEEAFF6D
:101410001213F67A007902121378EA4B601CEE6020
:10142000108A828B83A3A3A3A3A3E4936E70E480AA
:1014300009EFF874FF281F0470D97F020219AD74F8
:10144000F51217FCEAFF8B087A001214077A02796A
:1014500004121378EA4B60188A828B83A3A3E49367
:101460006F70EA8A828B83A3A3A3E493650870DD7F
:101470007F040219AD74F71217FC74F0121AC2E956
:101480007A007B00600C1460101460141460180261
:1014900015807AD67B050215807ADA7B05021580E5
:1014A0007AFE7B05021580900622E0600302157C1F
:1014B0007408121B69AC82AD837583057582CE7486
:1014C00008121A1A750808F5097808121AF2740237
:1014D000121B69AC82AD837AE87B07797F1215987D
:1014E0007402121A757808121AF2740A121B69AC87
:1014F00082AD837402121B69AA82AB831219157420
:1015000002121A758B09EA4509701D7509007808E1
:10151000121AF27C0C7D787402121B69AA82AB83CA
:101520001219677402121A757C287D008D088518BF
:1015300082851983E5822508F582E5833400F583E9
:10154000E0FF8C0874222508F874063400F9EF12C5
:10155000158888828983F0EFC4121588C0E0E824DA
:10156000FEF582E934FFF583D0E0F00D74FC2CFC2D
:10157000EDC3940840B6900622742AF07A227B06C6
:101580007410121A7502143A540FFA744C2AF58228
:1015900074063400F583E02274F51217FC89087490
:1015A0000F5508F50A750B00740B780A121B2BEA0D
:1015B0002400F8EB3480F9E82400E9350BF9E5C79D
:1015C000F509A2AFE433F50AC2AFE508C4540FFA37
:1015D000E5C754F84AF5C7740B121B69E0FAA3E09B
:1015E000FB801C88828983E08C828D83F0888289CD
:1015F00083A3A882A9838C828D83A3AC82AD83EA66
:10160000FEEBFFEE24FF1AEF34FFFBEE4F70D485A4
:1016100009C7E50AA2E092AF7F040219AD74F71280
:1016200017FCED900386F0ECA3F0A37462F0A374B2
:1016300073F0A3E0541FF07409121B69E0F508A3CE
:10164000E0F509E508333354FC90038BF074067819
:1016500008121B4DE50890038AF090038C7412F079
:10166000A37442F075D1FE75D601EA906271F0EB79
:10167000A3F0906270E0D2E1F0E0A2E740FB7F02CD
:101680000219ADC082C083E9C333906272F09062E8
:1016900070E0D2E0F0D083D0822274F71217FC758C
:1016A00023007524007525008A268B27EA90620B9B
:1016B000F08A088B0974047808121B4DE5089062C3
:1016C00007F08A088B0974097808121B4DE5085445
:1016D0003E906209F0758B00C2E87F020219AD747A
:1016E000F71217FCE59DA2E650FA906206E0FAA216
:1016F000E25035A826E890620BF0F50885270974BA
:10170000047808121B4DE508906207F085260885CD
:10171000270974097808121B4DE508543E906209A8
:10172000F0906201E0D2E0F07823EA46F69062029F
:10173000E0F50875090074047808121B2B7823E57E
:101740000846F608E50946F6906204E0F5087509D2
:101750000074097808121B2B7824E50946F6EAA2E2
:10176000E0500375250174065A6003752500E58B6A
:10177000A2E55006758BDF7525001217FB0216D502
:10178000C082C0839005B5E0F874226870089005A7
:10179000A2E0701A80117420689005A2700DE070AC
:1017A0000D1217D79005A2740280027404F08043D2
:1017B000C082C0839005B5E064219005A27013E05B
:1017C00070131217D7A37407F0A3E4F09005A204D6
:1017D00080027404F0801C9005AF7492F0A374052D
:1017E000F0A3E4F02280028000C082C0839005A2B2
:1017F0007404F0D083D0822280EF22222518C58283
:10180000C0E0E51934FFC583C0E0E518C395822424
:10181000F910AF088583198582188008858319859A
:101820008218D2AFCEF0A3E520F0A37808E608F046
:10183000A3DEFAEFF0A3E58124FBF8E608F0A3E6C7
:1018400008F0A30808E608F0A3E608F0A315811540
:1018500081D0E0FED0E0F815811581E8C0E0EEC04F
:10186000E02212010002020000205104A816090023
:10187000010203010902430002010080190904006A
:1018800000010202010005240010010424020205E7
:1018900024060001052401000107058203400040E1
:1018A00009040100020A000000070584024000004C
:1018B000070504024000007D180000A01800001277
:1018C0001B78B9000302190FE479217807B80002E8
:1018D0008004F709D8FCE490030078BF7903800204
:1018E000F0A3D8FCD9FA9005BEAA82AB8390008EF3
:1018F00078AB79018015E493A3AC82AD838A828BA7
:1019000083F0A3AA82AB838C828D83D8E9D9E712B6
:101910001249121B7374F51217FC740B121B69E049
:10192000F8A3E08015A3AA82AB838C828D83A3AC3D
:1019300082AD83E824FF18E934FFF9E849601F8C81
:10194000828D83E0F5088A828B83E0F50AE50865DD
:101950000A60D2E50AC39508FA95E0FB80047A0094
:101960007B007F040219AD74F71217FCEAF8EBF95B
:101970007409121B69E0FEA3E0FF80188C828D833E
:10198000E088828983F0A3A882A9838C828D83A3B7
:10199000AC82AD838E088F09E50824FF1EE509346B
:1019A000FFFFE508450970D47F020219AD85198350
:1019B000851882E0A3FEE0A3F5207808E0A3F608EE
:1019C000DFFAE0A3FFE0A3C0E0E0A3C0E0E0A3C033
:1019D000E0E0A3C0E010AF08858218858319800875
:1019E000858218858319D2AFD083D0822274038078
:1019F00000CCC0E0EDC0E0E518C39CCCAD195001AF
:101A00001D10AF068C188D1980068C188D19D2AF59
:101A1000121A1AD0E0FDD0E0FC22CAC0E0E0A3C553
:101A200082CCC582C583CDC583F0A3C582CCC582D7
:101A3000C583CDC583DAE6D0E0CA22C008C3E096EC
:101A4000F50808A3E096420808A3E096420808A318
:101A5000E09645087001D3D008222518F58210AF12
:101A600008F518400215198008F51840021519D21A
:101A7000AF85198322C0D0251810AF08F518500281
:101A800005198008F51850020519D2AFD0D022BB35
:101A90000102E722C082C08389828A83BB0003E0FF
:101AA0008002E493D083D082226016080808C6C35F
:101AB00013C618C613C618C613C618C613C6D5E073
:101AC000EA22251810AF08F518400215198008F50C
:101AD0001840021519D2AF22BB000EC082C0838A03
:101AE000838982F0D083D08222BB0101F722740364
:101AF000800474028000C0E0F404121A5AD0E0128C
:101B00001B5C22E066701008A3E066700A08A3E080
:101B100066700408A3E06622E026F608A3E036F625
:101B200008A3E036F608A3E036F622700422600D22
:101B300018C6C333C608C633C6D5E0F4182275D01C
:101B40000075813F7518007519030218BF600C08F5
:101B5000C6C313C618C613C6D5E0F422CAC0E0E651
:101B6000F0A308DAFAD0E0FA222518F582E4351954
:101B7000F5832200000080FB790122E473FFFFFF60
:101B8000FFFFFFFFFFFFFFFFFFFFFFFFFFFFFFFF65
:101B9000FFFFFFFFFFFFFFFFFFFFFFFFFFFFFFFF55
:101BA000FFFFFFFFFFFFFFFFFFFFFFFFFFFFFFFF45
:101BB000FFFFFFFFFFFFFFFFFFFFFFFFFFFFFFFF35
:0400000500001B3E9E
:00000001FF
